:020000040800F2
:10000000A8220010DD710008D5700008D770000824
:10001000D9700008DB700008DD70000800000000E7
:10002000000000000000000000000000DF70000879
:10003000E170000800000000E3700008E5700008AF
:100040008172000885720008897200088D720008AC
:100050009172000895720008997200089D7200085C
:10006000A1720008A5720008A9720008AD7200080C
:10007000B1720008B5720008B9720008BD720008BC
:10008000C1720008C5720008C9720008CD7200086C
:10009000D1720008D5720008D9720008DD7200081C
:1000A000E1720008E5720008E9720008ED720008CC
:1000B000F1720008F5720008F9720008FD7200087C
:1000C0000173000805730008097300080D73000828
:1000D0001173000815730008197300081D730008D8
:1000E0002173000825730008297300082D73000888
:1000F0003173000835730008397300083D73000838
:100100004173000845730008497300084D730008E7
:100110005173000855730008597300085D73000897
:100120006173000865730008697300086D73000847
:100130007173000875730008797300087D730008F7
:100140008173000885730008897300088D730008A7
:100150009173000895730008997300089D73000857
:10016000A1730008A5730008A9730008AD73000807
:10017000B1730008B5730008B973000800000000EF
:10018000BD730008C1730008C5730008C973000877
:10019000CD730008D1730008D5730008D973000827
:1001A000DD730008E1730008E5730008E9730008D7
:1001B000ED730008000000000000000000000000D7
:1001C000000000000000000000000000000000002F
:1001D000000000000000000000000000000000001F
:1001E000000000000000000000000000000000000F
:1001F00000000000000000000000000000000000FF
:10020000000003800003800003800003800003805F
:1002100000038000038000038000038000010000D1
:1002200001000000000000000003800003800000C7
:1002300000000000000000000000000000000000BE
:10024000000000000000000000000000000E700030
:100250000E70000E70000420000420000420000432
:10026000200000000000000000000000000000006E
:10027000000000000000000000000000000000007E
:10028000000000000000000000000000000000006E
:100290000000066000066000066000066000066060
:1002A000003FF8003FF8000660000CC0003FF80077
:1002B0003FF8000CC0000CC0000CC0000CC0000CCB
:1002C000C00000000000000000000000000000006E
:1002D0000000000000000001800001800007B00065
:1002E0000FF0001870001870001C00000F8000074D
:1002F000E00000F0001830001C30001C70001FE00F
:10030000001BC0000180000180000180000180000E
:1003100000000000000000000000000000000000DD
:1003200000000780000FC0001CE00018600018608B
:10033000001CE0000FF80007E0001FF00007380085
:1003400006180006180007380003F00001E000005E
:10035000000000000000000000000000000000009D
:10036000000000000000000000000000000000008D
:1003700003F00007F0000C60000C00000C00000609
:1003800000000700000F9C001DFC0018F000187012
:10039000000FFC0007DC000000000000000000006F
:1003A000000000000000000000000000000000004D
:1003B00000000000000380000380000380000100B3
:1003C000000100000100000100000000000000002A
:1003D000000000000000000000000000000000001D
:1003E000000000000000000000000000000000000D
:1003F00000000000000000000000001800003800AD
:1004000000700000F00000E00000E00001C000010A
:10041000C00001C00001C00001C00001C00000E038
:100420000000E000007000007000003800001800BC
:1004300000000000000000000000000000000000BC
:1004400000001800001C00000E00000E0000070055
:100450000007000003800003800003800003800089
:100460000380000380000700000700000F00000E5B
:1004700000001C0000180000000000000000000048
:10048000000000000000000000000180000180006A
:100490000180001DB8001FF80007E00003C0000342
:1004A000C0000660000660000000000000000000C0
:1004B000000000000000000000000000000000003C
:1004C000000000000000000000000000000000002C
:1004D0000000000000000000018000018000018099
:1004E000000180000180003FFC003FFC0001800013
:1004F00001800001800001800001800000000000F8
:1005000000000000000000000000000000000000EB
:1005100000000000000000000000000000000000DB
:1005200000000000000000000000000000000000CB
:10053000000000000000000000000000000000E0DB
:100540000000C00001C00001800001800003000025
:100550000300000000000000000000000000000098
:10056000000000000000000000000000000000008B
:10057000000000000000001FF8001FF8000000004D
:10058000000000000000000000000000000000006B
:10059000000000000000000000000000000000005B
:1005A000000000000000000000000000000000004B
:1005B000000000000000000000000000000000003B
:1005C000000000000000000000000000000003C068
:1005D0000003C00003C00000000000000000000095
:1005E00000000000000000000000000000180000F3
:1005F000180000380000300000700000600000604B
:100600000000C00000C00001800001800003000065
:100610000300000600000600000E00000C00001C95
:10062000000018000018000000000000000000009A
:100630000000000000000000000003C00007E00010
:100640000C30000C3000181800181800181800188A
:1006500018001818001818001818000C30000C307A
:100660000007E00003C000000000000000000000E0
:10067000000000000000000000000000000000007A
:1006800000000080000780001F80001D80000180A6
:1006900000018000018000018000018000018000D5
:1006A0000180000180000180001FF8001FF8000099
:1006B000000000000000000000000000000000003A
:1006C0000000000000000000000007C0001FF00054
:1006D00038300030180030180000180000300000DA
:1006E000600001C0000380000600000C000018003C
:1006F000003FF8003FF8000000000000000000008C
:1007000000000000000000000000000000000000E9
:10071000000003C0000FE0000C700000300000304B
:100720000000600003C00003E0000070000018003B
:100730000018000018001838001FF0000FC000005B
:1007400000000000000000000000000000000000A9
:100750000000000000000000000000E00001E000D8
:1007600001E0000360000660000660000C60000C01
:1007700060001860003060003FF8003FF800006043
:100780000003F80003F80000000000000000000073
:100790000000000000000000000000000000000059
:1007A00000001FF0001FF0001800001800001800E3
:1007B000001BC0001FF0001C3000001800001800D3
:1007C0000018000018003030003FF0000FC000009B
:1007D0000000000000000000000000000000000019
:1007E0000000000000000000000000F80003F80016
:1007F0000700000E00000C00001800001BC0001FC6
:10080000F0001C30001818001818001818000C38D8
:10081000000FF00003E000000000000000000000F6
:1008200000000000000000000000000000000000C8
:1008300000001FF8001FF8001818001838000030DA
:100840000000300000700000600000600000E00068
:1008500000C00000C00001C0000180000180000055
:100860000000000000000000000000000000000088
:100870000000000000000000000007E0000FF00092
:100880001C38001818001818000C300007E000078A
:10089000E0000C30001818001818001818001C3858
:1008A000000FF00007E00000000000000000000062
:1008B0000000000000000000000000000000000038
:1008C000000007C0000FF0001C30001818001818B6
:1008D000001818000C38000FF80003D800001800AA
:1008E00000300000700000E0001FC0001F0000008A
:1008F00000000000000000000000000000000000F8
:1009000000000000000000000000000000000000E7
:1009100000000000000003C00003C00003C000008E
:10092000000000000000000000000000000003C004
:100930000003C00003C00000000000000000000031
:1009400000000000000000000000000000000000A7
:10095000000000000000000000000000000000F0A7
:100960000000F00000F000000000000000000000A7
:1009700000000000E00001C00001800001800003D1
:100980000000020000000000000000000000000065
:100990000000000000000000000000000000000057
:1009A000001C00003C0000F00003C0000F00003CF1
:1009B0000000F000003C00000F000003C00000F049
:1009C00000003C00001C00000000000000000000CF
:1009D0000000000000000000000000000000000017
:1009E0000000000000000000000000000000000007
:1009F000007FFC007FFC000000000000007FFC0086
:100A00007FFC00000000000000000000000000006B
:100A100000000000000000000000000000000000D6
:100A200000000000000000000000000000000000C6
:100A30007000007800001E000007800001E0000048
:100A40007800001E0000780001E0000780001E0012
:100A500000780000700000000000000000000000AE
:100A60000000000000000000000000000000000086
:100A7000000000000007C0000FE0001870001830F0
:100A80000018300000700000E00003C00003800088
:100A90000300000000000000000700000700000045
:100AA0000000000000000000000000000000000046
:100AB0000000000000000000000003E00007F0005C
:100AC0000E38000C180018780018F80019D8001912
:100AD000980019980019980018F800187800180064
:100AE000000C00000E180007F80003E000000000F2
:100AF00000000000000000000000000000000000F6
:100B000000000000001F80001FC00001C000036043
:100B1000000360000630000630000C30000FF800C3
:100B20001FF800180C00300C00FC7F00FC7F000058
:100B300000000000000000000000000000000000B5
:100B4000000000000000000000000000007FE00046
:100B50007FF0001838001818001818001838001F07
:100B6000F0001FF800181C00180C00180C00180CDE
:100B7000007FF8007FF0000000000000000000008F
:100B80000000000000000000000000000000000065
:100B9000000000000003EC000FFC001C1C00180CFF
:100BA00000300C0030000030000030000030000049
:100BB000300000180C001C1C000FF80003F00000AF
:100BC0000000000000000000000000000000000025
:100BD000000000000000000000000000007FC000D6
:100BE0007FF000183800181800180C00180C0018B6
:100BF0000C00180C00180C00180C001818001838FD
:100C0000007FF0007FE00000000000000000000016
:100C100000000000000000000000000000000000D4
:100C200000000000007FF8007FF800181800181876
:100C3000001998001980001F80001F800019800093
:100C40001998001818001818007FF8007FF80000A5
:100C50000000000000000000000000000000000094
:100C6000000000000000000000000000003FFC0049
:100C70003FFC000C0C000C0C000CCC000CC0000F56
:100C8000C0000FC0000CC0000CC0000C00000C0025
:100C9000003FC0003FC00000000000000000000056
:100CA0000000000000000000000000000000000044
:100CB000000000000003EC000FFC001C1C00180CDE
:100CC00000300C0030000030000030FE0030FE002C
:100CD000300C00380C001C1C000FFC0003F000005E
:100CE0000000000000000000000000000000000004
:100CF000000000000000000000000000007E7E00F8
:100D00007E7E001818001818001818001818001F08
:100D1000F8001FF800181800181800181800181804
:100D2000007E7E007E7E00000000000000000000CB
:100D300000000000000000000000000000000000B3
:100D400000000000001FF8001FF800018000018073
:100D5000000180000180000180000180000180000E
:100D60000180000180000180001FF8001FF80000D2
:100D70000000000000000000000000000000000073
:100D80000000000000000000000000000007FE005E
:100D900007FE00003000003000003000003000008E
:100DA0003000303000303000303000303000306003
:100DB000003FE0000F800000000000000000000085
:100DC0000000000000000000000000000000000023
:100DD00000000000007F3E007F3E001830001860D9
:100DE0000018C0001980001B80001FC0001CE0001C
:100DF0001870001830001838007F1F007F1F000097
:100E000000000000000000000000000000000000E2
:100E1000000000000000000000000000007F8000D3
:100E20007F80000C00000C00000C00000C00000C87
:100E300000000C00000C0C000C0C000C0C000C0C46
:100E4000007FFC007FFC00000000000000000000AC
:100E50000000000000000000000000000000000092
:100E60000000000000F00F00F81F00381C003C3CA0
:100E7000003C3C00366C00366C0033CC0033CC00B8
:100E8000318C00300C00300C00FE7F00FE7F000033
:100E90000000000000000000000000000000000052
:100EA0000000000000000000000000000078FE00CC
:100EB00078FE001C18001E18001F18001B18001BCD
:100EC000980019D80018D80018F8001878001838B9
:100ED000007F18007F1800000000000000000000E4
:100EE0000000000000000000000000000000000002
:100EF000000000000003C0000FF0001C38001818AC
:100F000000381C00300C00300C00300C00300C009D
:100F1000381C001818001C38000FF00003C0000037
:100F200000000000000000000000000000000000C1
:100F3000000000000000000000000000003FF00082
:100F40003FF8000C1C000C0C000C0C000C0C000CEE
:100F500018000FF8000FE0000C00000C00000C005F
:100F6000003FC0003FC00000000000000000000083
:100F70000000000000000000000000000000000071
:100F8000000000000003C0000FF0001C380018181B
:100F900000381C00300C00300C00300C00300C000D
:100FA000381C001818001C38000FF00007C000079C
:100FB000CC000FFC000C3800000000000000000016
:100FC000000000000000000000000000007FE000C2
:100FD0007FF0001838001818001818001838001F83
:100FE000F0001FC00018E00018700018300018381A
:100FF000007F1E007F0E00000000000000000000C7
:1010000000000000000000000000000000000000E0
:10101000000000000007D8000FF8001C3800181866
:10102000001818001E00000FC00003F00000780038
:101030001818001818001C38001FF0001BE00000F2
:1010400000000000000000000000000000000000A0
:10105000000000000000000000000000003FFC0055
:101060003FFC00318C00318C00318C00318C000150
:10107000800001800001800001800001800001806B
:10108000000FF0000FF00000000000000000000062
:101090000000000000000000000000000000000050
:1010A00000000000007E7E007E7E001818001818E8
:1010B0000018180018180018180018180018180040
:1010C0001818001818000C30000FF00003C00000C2
:1010D0000000000000000000000000000000000010
:1010E000000000000000000000000000007F7F0002
:1010F0007F7F00180C000C18000C18000C1800065C
:10110000300006300003600003600003600001C08F
:101110000001C0000080000000000000000000008E
:1011200000000000000000000000000000000000BF
:101130000000000000FE3F80FE3F803006003006C9
:101140000030860019CC0019CC001B6C001B6C0011
:101150001E7C000E38000E38000C18000C18000021
:10116000000000000000000000000000000000007F
:10117000000000000000000000000000007E7E0073
:101180007E7E001818000C300006600003C00001CD
:10119000800001800003C0000660000C30001818B9
:1011A000007E7E007E7E0000000000000000000047
:1011B000000000000000000000000000000000002F
:1011C00000000000007C7E007C7E001818000C30BF
:1011D0000006600006600003C0000180000180007E
:1011E0000180000180000180000FF0000FF000007E
:1011F00000000000000000000000000000000000EF
:10120000000000000000000000000000001FF800C7
:101210001FF80018180018300018600018C00001EE
:1012200080000300000618000C1800181800301881
:10123000003FF8003FF80000000000000000000040
:10124000000000000000000000000000000000009E
:10125000000001F00001F000018000018000018029
:1012600000018000018000018000018000018000F9
:1012700001800001800001800001800001800001E8
:10128000800001F00001F0000000000000000000FC
:10129000000000001800001800001C00000C0000F6
:1012A0000E0000060000060000030000030000011D
:1012B000800001800000C00000C0000060000060ED
:1012C0000000700000300000380000180000180016
:1012D000000000000000000000000000000000000E
:1012E00000000F80000F800001800001800001805D
:1012F0000001800001800001800001800001800069
:101300000180000180000180000180000180000157
:1013100080000F80000F800000000000000000002F
:101320000000000000000000800001C00003E00099
:101330000770000630000C1800180C0010040000A4
:10134000000000000000000000000000000000009D
:10135000000000000000000000000000000000008D
:10136000000000000000000000000000000000007D
:10137000000000000000000000000000000000006D
:10138000000000000000000000000000000000005D
:10139000000000000000000000000000000000004D
:1013A0000000000000000000000000000000FFFF3F
:1013B00000FFFF0000000003000003800000E000C9
:1013C00000600000000000000000000000000000BD
:1013D000000000000000000000000000000000000D
:1013E00000000000000000000000000000000000FD
:1013F00000000000000000000000000000000000ED
:1014000000000000000000000000000000000FC00D
:10141000001FE00000300000300007F0001FF00067
:101420003830003030003070001FFC000FBC00006E
:1014300000000000000000000000000000000000AC
:1014400000000000000000000000780000780000AC
:101450001800001800001BE0001FF8001C180018FE
:101460000C00180C00180C00180C00180C001C18AC
:10147000007FF8007BE0000000000000000000009A
:10148000000000000000000000000000000000005C
:10149000000000000000000000000000000003EC5D
:1014A000000FFC001C1C00380C00300C0030000049
:1014B000300000380C001C1C000FF80003F0000086
:1014C000000000000000000000000000000000001C
:1014D000000000000000000000000078000078001C
:1014E00000180000180007D8001FF8001838003056
:1014F0001800301800301800301800301800183864
:10150000001FFE0007DE00000000000000000000D9
:1015100000000000000000000000000000000000CB
:10152000000000000000000000000000000007E0D4
:10153000001FF800181800300C003FFC003FFC00B2
:10154000300000300000180C001FFC0007F0000005
:10155000000000000000000000000000000000008B
:101560000000000000000000000001FC0003FC007F
:101570000600000600003FF8003FF80006000006E5
:10158000000006000006000006000006000006003D
:10159000003FF0003FF000000000000000000000ED
:1015A000000000000000000000000000000000003B
:1015B000000000000000000000000000000007DE46
:1015C000001FFE00183800301800301800301800D6
:1015D0003018003018001838001FF80007D8000035
:1015E00018000018000038000FF0000FC0000000C5
:1015F00000000000000000000000780000780000FB
:101600001800001800001BE0001FF0001C38001834
:1016100018001818001818001818001818001818C2
:10162000007E7E007E7E00000000000000000000C2
:1016300000000000000000000000000000000000AA
:1016400000000180000180000000000000001F80F9
:10165000001F8000018000018000018000018000E7
:101660000180000180000180003FFC003FFC000081
:10167000000000000000000000000000000000006A
:101680000000000000000000000000C00000C000DA
:101690000000000000001FF0001FF00000300000FC
:1016A000300000300000300000300000300000301A
:1016B00000003000003000003000003000007000FA
:1016C0001FE0001F8000000000000000000000007C
:1016D00000003C00003C00000C00000C00000CF876
:1016E000000CF8000CC0000D80000F80000F0000FF
:1016F0000F80000DC0000CE0003C7C003C7C000032
:1017000000000000000000000000000000000000D9
:10171000000000000000000000001F80001F80008B
:101720000180000180000180000180000180000133
:1017300080000180000180000180000180000180A4
:10174000003FFC003FFC0000000000000000000023
:101750000000000000000000000000000000000089
:101760000000000000000000000000000000F7780A
:1017700000FFFC0039CC00318C00318C00318C0032
:10178000318C00318C00318C00FDEF00FDEF00004A
:101790000000000000000000000000000000000049
:1017A0000000000000000000000000000000000039
:1017B0000000000000007BE0007FF0001C380018F3
:1017C0001800181800181800181800181800181811
:1017D000007E7E007E7E0000000000000000000011
:1017E00000000000000000000000000000000000F9
:1017F000000000000000000000000000000003C026
:10180000000FF0001C3800381C00300C00300C00B9
:10181000300C00381C001C38000FF00003C0000022
:1018200000000000000000000000000000000000B8
:1018300000000000000000000000000000000000A8
:101840000000000000007BE0007FF8001C1800187A
:101850000C00180C00180C00180C00180C001C18B8
:10186000001FF8001BE0001800001800001800001E
:101870007F00007F0000000000000000000000006A
:10188000000000000000000000000000000007DE73
:10189000001FFE0018380030180030180030180003
:1018A0003018003018001838001FF80007D8000062
:1018B000180000180000180000FE0000FE000000E4
:1018C0000000000000000000000000000000000018
:1018D0000000000000003E78003EFC0007CC00073E
:1018E00000000600000600000600000600000600DA
:1018F000003FF0003FF0000000000000000000008A
:1019000000000000000000000000000000000000D7
:10191000000000000000000000000000000007F8C8
:10192000000FF8001818001818001F80000FF000B2
:1019300000F8001818001838001FF0001FE0000021
:101940000000000000000000000000000000000097
:10195000000000000000000000000C00000C00006F
:101960000C00000C00003FF0003FF0000C00000CE9
:1019700000000C00000C00000C00000C00000C1C0F
:101980000007FC0003F00000000000000000000061
:101990000000000000000000000000000000000047
:1019A0000000000000000000000000000000787847
:1019B0000078780018180018180018180018180077
:1019C0001818001818001838000FFE0007DE000075
:1019D0000000000000000000000000000000000007
:1019E00000000000000000000000000000000000F7
:1019F0000000000000007C3E007C3E00181800182B
:101A000018000C30000C300006600006600007E093
:101A10000003C00003C00000000000000000000040
:101A200000000000000000000000000000000000B6
:101A30000000000000000000000000000000783CF2
:101A400000783C003118003398003398001AB00039
:101A50001EF0001EF0001C60000C60000C60000016
:101A60000000000000000000000000000000000076
:101A70000000000000000000000000000000000066
:101A80000000000000003E7C003E7C000C300006A0
:101A9000600003C00001800003C0000660000C303D
:101AA000003E7C003E7C00000000000000000000C2
:101AB0000000000000000000000000000000000026
:101AC00000000000000000000000000000007E1F79
:101AD000007E1F00180C000C18000C1800063000C7
:101AE00006300003600003E00001C00000C00001F8
:101AF00080000180000300003FC0003FC0000000E4
:101B000000000000000000000000000000000000D5
:101B10000000000000001FF8001FF8001830001837
:101B2000600000C0000180000300000618000C18CF
:101B3000001FF8001FF80000000000000000000077
:101B40000000000000000000000000000000000095
:101B5000000000E00001E000018000018000018041
:101B60000001800001800001800003800007000068
:101B700003800001800001800001800001800001DD
:101B8000800001E00000E000000000000000000014
:101B90000000000000000000000001800001800043
:101BA00001800001800001800001800001800001AF
:101BB0008000018000018000018000018000018020
:101BC0000001800001800001800001800001800090
:101BD0000000000000000000000000000000000005
:101BE00000000700000780000180000180000180E4
:101BF0000001800001800001800001C00000E000C1
:101C000001C000018000018000018000018000010E
:101C100080000780000700000000000000000000B6
:101C200000000000000000000000000000000000B4
:101C30000000000000000000000000000E00001F77
:101C400018003BB80031F00000E000000000000088
:101C50000000000000000000000000000000000084
:101C60000000000000000000000000002DE9F04F1F
:101C7000A1B08046002017461D4602910B900DF141
:101C8000440A6FF000490AE017F8011B0298C047A8
:101C90000028029000F0A5820B98401C0B90387829
:101CA00008B90B989FE22528EED1002005900690F8
:101CB0000790089009900A9001E040F0010017F8A1
:101CC000011F2029F9D023290DD02B2904D02D293B
:101CD00006D030290AD00CE040F0020080B2EEE7D6
:101CE00040F00400FAE740F00800F7E740F0100089
:101CF000F4E72A290ED12968296051F8042B2960BC
:101D0000002A0D9204D5514240F004000D9180B29A
:101D10007F1C11E000210D9109E00D99494505D086
:101D200001EB810302EB430130390D917F1C3A78BE
:101D3000A2F130010A29F0D339782E2903D04FF0CF
:101D4000FF310C911DE017F8011F2A2907D12968DE
:101D500029607F1C51F8042B29600C9211E00021AE
:101D60000C9109E00C99494505D001EB810302EB88
:101D7000430130390C917F1C3A78A2F130010A29D5
:101D8000F0D3ADF838000FF6CC20397800F070FDB4
:101D900008B117F8010B8DF83A009DF83A00682851
:101DA00002BF39786829622005D06C2804BF3878D2
:101DB0006C2803D171208DF83A007F1C11A8049083
:101DC00017F8014BB4F1250023D02038022840F247
:101DD000BB80133800F0E0800B3800F04A81401ED1
:101DE00000F02381401E022840F2AE80001F00F068
:101DF0001C81401F79D0401E00F0CE80401E24D0B0
:101E0000C01E0BD0801E00F0C780C01E00F0C48032
:101E100039E125208DF8440001203DE12868286043
:101E200050F8046B286003960C9C002C04D53046B7
:101E300000F02AFD044606E022460021304600F06C
:101E40003FFD00B1841B069427E1296829603C24EA
:101E500051F8040B29600021CDE9000111A803907D
:101E6000DDE90001049E11B908B90C9AB2B102066D
:101E7000120FA0EB02123032D2B2631E3A2AA8BF70
:101E8000273200099A5540EA0170090908BF002865
:101E90001C4603D0039AA3199A42E8D3A0190390D1
:101EA000C4F13C010C980691814209DA401A08906D
:101EB0004FF6EF71BDF838000840ADF83800ECE09F
:101EC000002840F1EA809DF8380000F01400102846
:101ED00040F0E3800D98059A801A089A801A441AF7
:101EE000012CC0F2DA800894D7E09DF83A0062280D
:101EF0001AD0682806D06A280CD06C281CD071280B
:101F000008D019E02868286050F8041B28600B9856
:101F10000880C2E02868286050F8042B28600B98DD
:101F2000C117C2E90001B8E02868286050F8041B16
:101F300028600B980870B0E02868286050F8041BEF
:101F400028600B980860A8E02868C01D20F00702F0
:101F50002A60D2E9000108322A60CDE90001002997
:101F600002D505982D210AE0BDF83800810702D579
:101F700005982B2103E0C00705D50598202100F81E
:101F80000A10401C059011A80599081803902146D5
:101F9000684600F0E5F980E09DF83A006C280DD025
:101FA000712818BF6A2809D12868C01D20F00702CF
:101FB0002A60D2E9000108322A6005E02968296018
:101FC00051F8040B29600021CDE900019DF83A0089
:101FD000682803D1DDE9000180B20BE0622803D15B
:101FE000DDE90001C0B205E0742818BF7A2804D1E9
:101FF000DDE900010021CDE900019DF8380000076E
:102000002ED5DDE90001002908BF002828D044F0C2
:102010002000782824D10598302100F80A10401CAF
:10202000411C059100F80A401AE09DF83A00294643
:1020300000F0DCF8CDE90001002902DA05982D2135
:102040000AE0BDF83800810702D505982B2103E08E
:10205000C00705D50598202100F80A10401C0590FE
:1020600011A80599081803902146684600F0F5F874
:1020700013E0012005902868286050F8041B2860B0
:102080008DF8441009E025208DF8440001200590CA
:102090001CB18AF80140022005900D980599401A5C
:1020A0000899401A0699401A0999401A0799401A46
:1020B0000A99441A9DF83800400710D420208DF862
:1020C0004000002609E0012310AA6946404600F0BE
:1020D000AAFB002840F08580761CA642F3DB059E13
:1020E0000DF1440B0AE01BF8011B0298C0470028C1
:1020F000029076D00B98401C0B90761E002EF2D1E9
:1021000030208DF840004FF0000B089E09E00123BD
:1021100010AA6946404600F086FB002861D10BF109
:10212000010BB345F3DB069EDDF80CB00AE01BF8AB
:10213000011B0298C0470028029052D00B98401C07
:102140000B90761E002EF2D130208DF840004FF01B
:10215000000B099E09E0012310AA6946404600F0E1
:1021600062FB00283DD10BF1010BB345F3DB039873
:102170000699079E01EB000B09E01BF8011B029872
:10218000C047029068B30B98401C0B90761E002E3F
:10219000F3D130208DF840004FF0000B0A9E08E08C
:1021A000012310AA6946404600F03DFBC8B90BF177
:1021B000010BB345F4DB9DF8380040077FF56FADA8
:1021C00020208DF84000002600E0761CA642BFF6D5
:1021D00066AD012310AA6946404600F024FB0028A2
:1021E000F3D04FF0FF3021B0BDE8F08F622826D049
:1021F00068281DD06A2808D06C2827D0712804D000
:10220000742823D07A280CD020E00868C01D20F064
:1022100007000860D0E9002308300860194610461E
:1022200070470A680A6052F8040B0A600021704780
:102230000A680A6052F8040B0A6000B20BE00A68F0
:102240000A6052F8040B0A6040B204E00A680A60AF
:1022500052F8040B0A60C11770472DE9FA4E054683
:102260000A462F696F2A08BF082405D041F02000D4
:10227000782814BF0A2410243C26D5E90001642ADA
:1022800018BF692A81468A4605D1002903DAD9F1A7
:1022900000096AEB4A0ABAF1000F08BFB9F1000F52
:1022A0000CD1286B50B9082C36D195F838000007AE
:1022B00032D530203B2687F83B002DE0E317484617
:1022C0005146224600F028FBA4FB0023A9EB0202A2
:1022D0003032D2B2A6F1010B3A2A5E4603DB9DF8FA
:1022E0000030513B9A180BF8072081465FEA010A3B
:1022F00008BFB9F1000F03D0E868F1198842DDD3B7
:10230000082C09D195F83800000705D5F05D302874
:1023100002D0761E3020F055C6F13C00A861F119BC
:10232000E960296B884208DA081A28624FF6EF71D3
:10233000288F08402887BDE8F38E00290ED595F830
:10234000381001F01401102908D1696B6A69891AE3
:102350002A6A891A0E1A012EA8BF2E62BDE8F38ED2
:102360002DE9F34F8BB0D0E90089006B002801AF55
:1023700048BF062005D404BF41F02000672802D1E1
:1023800001200B99086340F2FF720B984168C1F37A
:102390000A50904220D1080302BF0B980068002821
:1023A0000AD10B99032088619DF8300061381A2802
:1023B00058D30FF2B44109E00B99032088619DF8CE
:1023C000300061381A284AD30FF294410B98C06844
:1023D000032200F019FB00E1012807DA0B9800F056
:1023E0004EFB012802DB00230026EDE00B9ADFF80C
:1023F00054B1526840F2FE3161F31E520B994A60AB
:1024000040F2FE31461A404649460022002300F0C1
:1024100057FB38BF89F0004936B247F297507043F6
:10242000494990FBF1F636B2C6F10707012F9246F3
:102430001BDBF80707D552465B464046494600F08D
:1024400057FB804689465046594652465B467F10A8
:1024500000F04EFB002F82468B46EAD126E00FF2B9
:10246000FC31B3E70FF2FC31B0E77F420024374D77
:1024700012E0F80707D552465B462046294600F091
:1024800037FB04460D465046594652465B4600F01F
:102490002FFB7F1082468B46002FEAD140464946EB
:1024A00022462B4600F0F6FB804689469DF8300018
:1024B000DFF89CB040F02005662D0CBF06F10A0045
:1024C00006200B99096B4718142FA8BF132730203B
:1024D0008DF804000DF10504012F3BDB4046494611
:1024E00000F004FD014604F1080204234FF00A0C39
:1024F000B1FBFCFC0CEB8C04A1EB4401303102F885
:10250000011C0A21BCFBF1FE0EEB8E04ACEB440473
:1025100030345B1E714602F8024DE7D1083F012FAF
:1025200002F10804D8DB00F0F7FC02460B464046F7
:10253000494600F0FFFC00225B4600F0D9FA8046D5
:102540008946CBE700002440A08601000000F03F50
:1025500084D797410DF10500201A0DF1050702E01F
:10256000401E761E7F1C39783029F9D0662D02D1A5
:1025700036B2711C03E0652D0CBF012100210B9ABE
:10258000126B8B181BB29842B8BF03461BB21900DE
:102590001AD4814204DAC85D3528A8BF392000DA90
:1025A0003020CA19521E00E05B1E12F80159491E64
:1025B0008542F9D0392802D1C85D401CC855002990
:1025C00002D57F1E5B1C761C36B29DF830100B982E
:1025D00000961BB23A4600F003F80DB0BDE8F08F4C
:1025E0002DE9F043054685B01E46D5F83080012E12
:1025F0008946174602DA01260FF2702749F02000BB
:10260000BDF93040662808BF641C15D0672840F02B
:10261000938014F1040F7CDB44457ADA95F8380096
:10262000641C000702D44645B8BFB04624B2B8EBDC
:10263000040848BF4FF0000824B2E868A969012CDB
:1026400025DA4A1C30230B54B8F1010F03DA95F850
:102650003810090702D52E211154521CAA6118EB1B
:10266000040FB8BFC8F1000424B26142A0446962FB
:10267000B045B8BF4646AB6936B2EE613246394620
:10268000181800F0C1F9A8EB0600A862B4E0081819
:10269000A64218DA3246394600F0B6F9A96971182F
:1026A000A01BB8F1010FA961686203DA95F8380040
:1026B000000705D5EA682E208854E869401CE861C7
:1026C000C5F8288098E02246394600F09DF9A869AF
:1026D0002018361BB8F1010F03DA95F838100907F6
:1026E00003D5EA682E218154401C36B2A861B0455A
:1026F000B8BF4646E868AB6936B23246E1191818E9
:1027000000F082F9A8693018A861A8EB0600686299
:1027100072E0464504DA95F83810090758BFB0460C
:10272000B8F1010848BF4FF00008B9F1670F0CBFBE
:102730004FF065094FF04509A969E8684A1CAA618C
:10274000B8F1010F17F8013B0B5403DA95F8381074
:10275000090717D5531CAB612E211154B8F1010F95
:1027600010DB761E36B2B045B8BF464636B23246AA
:102770003946181800F048F9A8693018A861A8EB84
:1027800006006862E868A9690918200081F80090CD
:1027900003D42B2048708F1C03E02D224A708F1C1D
:1027A000644200260DF1080808E00A22684600F09D
:1027B00081FC019808F8010B761C009C21B20129CC
:1027C000F3DA022E06DA49F02000652804BF302033
:1027D00007F8010B4EB9302007F8010B07E0761E11
:1027E00002A8305C303007F8010B012EF7DAE868F8
:1027F000A9690818381AE86195F8380000F0140043
:1028000010280DD16869A9690818696A0818E9696A
:102810000818A96A0818696B8842BCBF081A2862A0
:1028200005B0BDE8F083F8B504460D4616461F46D0
:10283000002004E0E86A401CE8627F1E002047B1E7
:1028400016F8011BA868A0470028A860F2D14FF035
:10285000FF30F2BD686A6C747A4C00006E616E00E5
:102860004E414E00696E6600494E46003000000041
:102870000278C9B28A421AB11CBF10F8012FF9E7D9
:1028800018BF00207047008000F10103810704D0C9
:1028900010F8011B89B18107FAD10268B2F1013148
:1028A000914311F0803F04BF50F8042FF6E710F871
:1028B000011B11B110F8011BFBE7C01A7047C430AF
:1028C000C9B2830706D0521E22D310F8013B9942A9
:1028D000F7D11FE0083A13D302F1040241EA0121C3
:1028E00041EA014150F8043B121F21BF4B40A3F1C4
:1028F000013C2CEA030C1CF0803FF3D0C9B2001F4E
:10290000083210F8013B521E28BF91EA030FF8D895
:1029100018BF0120401E70471B4213D1094236D117
:102920002AB18446B0FBF2F002FB10C2704700F0FF
:10293000C9BBFCD30022002370470B00020000211A
:1029400000207047904271EB030CF6D370B5B1FADA
:1029500081F4B3FA83F52C1BA340C4F1200532FAAD
:1029600005F63343A2405FF00046E64002E05B0814
:102970005FEA3202841A71EB030524BF2046294620
:102980007641F4D302000B003000002170BD012A13
:10299000CFD970B5140C20D0B1FA81F4B2FA82F517
:1029A000C4F120046419B4F12006D6D3B2405FF01C
:1029B0000044F440002502E052085FEA3303C61ADF
:1029C00071EB020E24BF3046714664416D41F3D372
:1029D00002000B002000290070BD0C46B1FBF2F193
:1029E00002FB11452D0445EA1045B5FBF2F402FB4C
:1029F000145580B240EA0545B5FBF2F002FB1052D7
:102A000040EA044070BD008A62B38B0708D0521EB2
:102A100011F8013B00F8013B00F024808B07F6D150
:102A2000830740F0208000BF103A07D330B4B1E8EC
:102A30003810103AA0E83810F9D230BC530724BF40
:102A4000B1E80810A0E8081044BF51F8043B40F872
:102A5000043BD20724BF31F8022B20F8022B44BFDD
:102A60000B7803707047083A07D3B1E80810083AAA
:102A700040F8043B40F804CBF7D25307E4E730B406
:102A8000436803F0004201211B031B0B436004BF9A
:102A90000368002B08D10DE00368DD0F45EA44040C
:102AA00044605B000360491E4468E302F4D52303DD
:102AB0001B0B436043681A434260084630BC7047B2
:102AC0004FF4001C1CEB410F94BF1CEB430F09E0BB
:102AD00041EA030C50EA4C0C52EA0C0C03D2994226
:102AE00008BF9042704714BF8B4282427047C44077
:102AF000B0B581EA030C0CF0004C40F2FF7515EA0A
:102B000011541DBF15EA1357AC42AF4239E0E41926
:102B100023EA455343F48013C90241F0004141EADE
:102B2000505EC7021100A7FB020200284FF0000010
:102B3000EEFB01204FF00001E3FB072118BF42F03C
:102B40000102401800214941E3FB0E01A4F5806415
:102B50000F0302D252004041494154F101046CDD9F
:102B6000470872F1004250F1000051EB0451A1F509
:102B700080115CBF41EA0C01B0BD4CEA0551002058
:102B8000B0BD05EA1357AC4214BFAF4241E050EA72
:102B9000410E1CBF52EA430E02E061460020B0BD68
:102BA00024423C441BD15FEA070EF6D0090302BF62
:102BB00001460020AEF1140EB1FA81F7AEEB070426
:102BC00001FA07FE0C37C7F1200100FA07F7C840E9
:102BD0004EEA000E23EA455343F48013A2E733F094
:102BE0000043B3FA83F704BFB2FA82FE77440B3F87
:102BF000E41BB7F1200E2FBF02FA0EF3BB40C7F162
:102C0000200E22FA0EFE38BF43EA0E03BA40641CBF
:102C100082E750EA410E14BF52EA430E6FF0000102
:102C20004FF4001717EB430F8ABF194617EB410FFC
:102C3000B5E74CEA05510020B0BDD4F10104B4F170
:102C400020070FDAC4F12007520828BF42F0010222
:102C500010FA07F501FA07F7E1BF2A43E0403843CD
:102C6000E1400FE0352C98DCC7F1200452EA400225
:102C700020FA07F218BF42F0010231FA07F0A14032
:102C80000A43002172F1004250F1000051EB0C01A7
:102C9000B0BD00B12DE9F04140F2FF7581EA030CAF
:102CA0000CF0004C15EA11541DBF15EA1357AC4245
:102CB000AF42E9E0BC41C1F31301C3F31303801A2F
:102CC000994143F4801304D2641E400049418018A6
:102CD0005941C90241EA5051B1FBF3F603FB161109
:102CE000A2FB0675D7EBC020A94102D2761E801840
:102CF0005941C90241EA5051B1FBF3FE03FB1E11D9
:102D0000A2FB0E75D7EBC020A94103D2AEF1010E94
:102D100080185941890241EA9051760546EA8E2E83
:102D2000B1FBF3F603FB1611A2FB0675D7EB80206F
:102D3000A94102D2761E80185941C90241EA505178
:102D40004EEA060EB1FBF3F603FB1611A2FB067565
:102D5000D7EBC020A94102D2761E80185941C90282
:102D600041EA5051B1FBF3F703FB1711A2FB073502
:102D7000D3EBC020A94167F100070CBF004247F028
:102D8000010766F3D5274FEA1E31B80814F58064B1
:102D900014DDBD0775F1004250EB0E5051EB0451AC
:102DA00011F5801F5CBF41EA0C01BDE8F0814CF0D9
:102DB0007F6141F0E0410020BDE8F081BD076D0872
:102DC00040EA0E5041F48011D4F10104B4F1200620
:102DD0000ADAC4F120060200E04001FA06F3E140FD
:102DE0001843B24015430EE0342C14DCC6F1200425
:102DF00045EA40056D0820FA06F2154321FA06F06F
:102E0000A1400D43002175F1004250F1000051EB4B
:102E10000C01BDE8F08100205FEA0C01BDE8F08103
:102E2000CFB992185B41B3FA83F704BFB2FA82F6C6
:102E3000BF190B3FB7F120062FBF02FA06F3BB40C4
:102E4000C7F1200622FA06F638BF3343BA401CB158
:102E5000E419641E2FE77F4231F00041B1FA81F49A
:102E600004BFB0FA80F6A4190B3CB4F120062FBFC2
:102E700000FA06F1A140C4F1200620FA06F638BF98
:102E80003143A0403C1B16E7AC421ABF05EA13577A
:102E9000AF4214E050EA41061CBF52EA4306BFE7C6
:102EA00050EA4107304661461CBF41EA0551BDE882
:102EB000F08152EA430C08BFC143BDE8F081002015
:102EC0004FF4001616EB410F98BF16EB430F08BFE7
:102ED00016EB410F24BFC14305E016EB430F0CBFB7
:102EE00061464CEA0551BDE8F081C5A9400D40EAB4
:102EF000C120490080F00D8040F00040490DA1F54F
:102F00008061491C05D4D1F11F0154BFC840C017CE
:102F100070474FF000007047010000BF09D0B0FAC1
:102F200080F18840C91CC1F58461090501EBD021FD
:102F300040057047F0B44FF0004591EA030F44BFDD
:102F40006B4000F0C1B800BF841A71EB030604D2D5
:102F50006E40001BB141121973414FF4001C1CEB71
:102F6000410F34BF7CEB430684E00C0DA4EB1356F9
:102F7000362E7DDC012E43DC45EAC32343EA52535F
:102F800012BFD20292025B08240545EAC12141EA40
:102F90005051D2EBC020994125D407D1B0FA80F628
:102FA00010FA06F164D00020203608E0B1FA81F66C
:102FB000B140C6F1200220FA02F21143B0404FEABC
:102FC000F474B4EB465434F001064FEA74040AD8A2
:102FD000D6F50016760D04F00044F04061FA06F2D2
:102FE0005040F1404840C00A40EA415021F00041C1
:102FF00028BF5FEA500550F1000044EBD12137E0D3
:1030000045EAC323DB0A45EAC121C90AB6F1200516
:103010000EDD42EA0242120CC5F1200603FA06F662
:10302000EB4042EA06056D42984161F100010DE076
:1030300062FA06F5F240554063FA06FC82EA0C0299
:10304000F3405A406D42904161EB030111F4801F3F
:1030500005D1641E620502D06D004041494121F452
:103060008011430875F1004350F1000041EB045119
:10307000F0BC70471CEB410F15D223F0004352EA1D
:1030800043060BD04FEA4C0CBCEB410F04D80C0D9F
:10309000661E342EB7DDEBE7801A994150EA4106EF
:1030A00008BF0021E4E708BF1CEB430F28BF6FF007
:1030B0000001DDE791FBF2F303FB1211C0E90031DF
:1030C000704700917047C534841A71EB030603D230
:1030D000001BB141121973414FF4001C1CEB410F4E
:1030E00034BF7CEB430443E00C0DA4EB1356352EA8
:1030F00050DC45EAC323DB0A45EAC121C912B6F117
:1031000020050DDD63FA05F6EB4086EA0305124261
:1031100018BF45F00105C01851F100010CD213E0B1
:1031200062FA06F5F2405540F3415A40B340F3408D
:103130005A408018594107D349085FEA30005FEAD6
:10314000350528BF45F0010501F58011420875F1EC
:10315000004250F1000041EB0451F0BC4FF4001C60
:103160001CEB410F38BF70470020090D090570475F
:103170001CEB410F10D252EA43060BD0BCEB410FBF
:1031800005D80C0DAB43661E342EB5DD02E0AB4313
:1031900080185941F0BC7047F0BC704780B50020E2
:1031A00000F001F802BD2DE9F04F87B0040046F6AB
:1031B00025350026002700F053F900F01EFBDFF84C
:1031C000D005DFF8D0150860DFF8C80500F04DFD28
:1031D0007D20049002200590002006904FF22440AC
:1031E00007000120DFF8AC15C86043F60450B7FBB8
:1031F000F0F0DFF8A015886004A9DFF8980500F06A
:103200006EFCB7FBF5F00600E4B2002C16D10C20E2
:1032100002900C2001900C200090782080467820AD
:103220008146782082464FF4F070DFF86C15086014
:103230004FF44870DFF86415086015E00C20029028
:103240000C2001900C200090782080467820814648
:10325000782082464FF44870DFF83C1508604FF440
:10326000F070DFF838150860DFF82C050068834639
:10327000DFF82805006803900020DFF824150860B7
:103280000020DFF81C1548600020DFF814150862E4
:103290000020DFF80C15C8610020DFF80415486233
:1032A0000220DFF8FC14C86040F6FF70DFF8F0146D
:1032B00088610020DFF8E8144861DFF8E404C0F812
:1032C00010B006FB08F0DFF8D814886206FB09F09E
:1032D000DFF8CC14C86218EB0B0019EB00001AEBF6
:1032E00000007043DFF8B81408630298DFF8B014E8
:1032F00048630198DFF8A81488630098DFF8A014E9
:10330000C8630398DFF8981408644FF40040DFF8AE
:10331000901448644020DFF8881488644020DFF867
:103320008014C8644FF40050DFF8741408654FF43B
:103330008050DFF86C1448654FF40060DFF86014CB
:1033400088654FF48060DFF85814C8654FF400704A
:10335000DFF84C1408664FF48070DFF844144866B8
:10336000DFF83C14DFF82C0400F0BAFCDFF824048A
:1033700000F01CFEB8F10100DFF82814486119EBD9
:103380000800401EDFF81C14C861DFF80C04006858
:1033900018EB000019EB0000401EDFF8081448622B
:1033A000DFF8F403006818EB000019EB00001AEBDB
:1033B0000000401EDFF8EC13C862DFF8DC03006891
:1033C000DFF8E0130866DFF8D4030068DFF8D413F1
:1033D00048660820DFF8D0130860D820DFF8C8134B
:1033E00008610720DFF8C013C8610020DFF8B813B8
:1033F0008862DFF8B40300F08BFE0020DFF8A4132E
:1034000081F834000020DFF89C1381F8350000209B
:10341000DFF8901381F836000020DFF88813086188
:10342000DFF88803DFF87C130860DFF87413DFF837
:10343000740301F063FADFF86C0301F093FA01F012
:1034400097FCDFF86C0300F0AAF8E4B22100DFF883
:103450005003406801F062FE002007B0BDE8F08F25
:1034600000B587B0DFF84C03006850F08000DFF84B
:1034700044130860DFF83C03006810F080000090FF
:1034800000988020019011200290002003900320DA
:10349000049001A9DFF8200302F086F800228021C1
:1034A000DFF8140302F086F9142002F0E5F9012296
:1034B0008021DFF8040302F07DF90A2002F0DCF934
:1034C00007B000BDDFF8D00200687047DFF8CC021B
:1034D0000068704730B58DB004000D0000200090EA
:1034E000FFF7F0FF019000200290FFF7EFFF03903D
:1034F000002004900995FF200590002006900020F0
:103500008DF8300000208DF8310000208DF8320059
:103510004FF4C060079007200890FFF7D3FF0A9090
:10352000FFF7D4FF0B90A4B222006946DFF87402C3
:1035300001F0B6FA5FF0FF30DFF88412A4B20C227B
:1035400002FB04114860DFF86802DFF87412A4B2CD
:103550000C2202FB041188605FF07F40DFF86012EC
:10356000A4B20C2202FB041108600DB030BDDFF8DC
:103570004C1208607047DFF84812DFF840221268EA
:103580000C2303FB021108607047DFF83412DFF8E8
:103590002C2212680C2303FB021148607047DFF8ED
:1035A0002012DFF8182212680C2303FB0211886036
:1035B000704730B583B00400FFF788FF0500FFF7C0
:1035C00081FF0194002100912B000200DFF8D4015B
:1035D000DFF8E8110968342505FB0100C16DDFF84B
:1035E000DC01006800F02AFA37BDF8B504000D00D0
:1035F0001600F6B2B6F12000DFF8C411DFF8BC21E6
:1036000012680C2303FB02118968C9884843DFF85C
:10361000B011DFF8A82112680C2303FB021189689E
:103620008988C91D082291FBF2F1DFF89421DFF8A7
:103630008C311B680C2707FB03229268126801FB80
:103640000022290089B2200080B200F063F9F1BDA8
:103650002DE9FB4F04001500012600275FF0000A4A
:103660005FF00008A946484610F1010900780028DB
:1036700002D01AF1010AF6E7FFF724FFDFF8401144
:10368000DFF8382112680C2303FB0211896889884E
:10369000B0FBF1F080469DF80800012804D02AD341
:1036A000032813D014D326E0B8EB0A00DFF810117A
:1036B000DFF8082112680C2303FB0211896889884E
:1036C0004843400810FA84F0060015E0260013E095
:1036D000A4B26042B8EB0A01DFF8E420DFF8DC3086
:1036E0001B685FF00C0C0CFB03229268928802FBB3
:1036F0000100060000E02600B6B2002E03D0B6B2EC
:10370000B6F5004F01DB012006002878002802D022
:103710005FF0010B01E05FF0000BFFF7D3FEBFB2DB
:10372000DFF89C10DFF8942012680C2303FB0211D1
:103730008968898801FB170080B2DFF88410DFF800
:103740007C2012680C2303FB021189688988884257
:1037500001D3012100E000215846C0B2084214D034
:103760002A78BDF80410300080B2FFF73EFFDFF882
:103770005000DFF8481009680C2202FB0100806845
:10378000808886196D1C7F1CBFE7BDE8F78F00009D
:10379000006C01403C0200101000001014000010EA
:1037A000C800001020000010CC010010006801408B
:1037B0000000001030380240001C02409C02001043
:1037C0007402001030B583B004000D00022C09D241
:1037D000687800902B7815220021DFF8C80200F0ED
:1037E000FFFB09E00195605D009023003922002174
:1037F000DFF8B00200F024FC37BD80B5DFF8B4027A
:10380000006850F08060DFF8AC120860DFF8A402B6
:10381000006810F0806000900098DFF89002006867
:1038200050F08060DFF884120860DFF880020068E2
:1038300030F08060DFF874120860DFF87C02006806
:1038400050F40000DFF870120860DFF86C020068C6
:1038500010F4000000900098DFF85402006850F463
:103860000000DFF84C120860DFF84402006830F412
:103870000000DFF83C120860DFF83802006850F002
:103880000060DFF830120860DFF82802006810F0EE
:10389000006000900098DFF81402006850F00060AB
:1038A000DFF808120860DFF80402006830F00060FA
:1038B000DFF8F811086000220321582002F05CF8BC
:1038C000582002F06CF8002203215A2002F054F82C
:1038D0005A2002F064F8002203215C2002F04CF828
:1038E0005C2002F05CF801BDF8B504000D00160084
:1038F000DFF8AC01DFF8C4110968342202FB0100D3
:10390000C76DADB2FFF7DEFDA4B200FB054047F87E
:103910002060F1BD2DE9F84F04000D0016000027CE
:103920005FF00008DFF89801DFF8901109680C22B9
:1039300002FB01008068C088ADF80200DFF880015A
:10394000DFF8781109680C2202FB0100806880888A
:1039500081461FFA89F919F10700082190FBF1F05F
:103960001FFA89F9D9EBC0008DF80000002007008C
:10397000BDF8020087425FD21FFA89F919F10700EA
:10398000082190FBF1F007FB006082461FFA89F9DD
:1039900019F10700082190FBF1F0012802D002285C
:1039A00004D00BE09AF80000834612E09AF8000079
:1039B0009AF8011051EA002083460AE09AF80000C4
:1039C0009AF80110090251EA00409AF802100843DF
:1039D0008346002080461FFA89F9C84529D2B9EBF1
:1039E00008009DF800100818401E5946C140C8073D
:1039F0000ED53348314909680C2202FB01000268E8
:103A0000290089B218EB040080B2FFF76DFF0DE0CA
:103A10002B482A4909680C2202FB01004268290050
:103A200089B218EB040080B2FFF75EFF18F10108BD
:103A3000D1E76D1C7F1C9BE7BDE8F18F2DE9F843B2
:103A400004000D0016001F00DDF82080DDF8249032
:103A50005FF44030144948600020134988601248E0
:103A6000C0F80C801748104908600F4801F0B4FFF7
:103A7000002812D121000C4802F08FF800280CD148
:103A8000009733002A004946074801F0DCFF002870
:103A900003D10A21044802F002F8BDE8F1830000D6
:103AA000200000103C0200108C010010243802405D
:103AB0001038024044380240303802409C02001066
:103AC0007402001000B0024030B4029C52EA81152A
:103AD00055EA032555EA0445C56630BC70472DE913
:103AE000F04104000D00002600275FF00008002CC4
:103AF00001D10120B7E0607C002802D1200000F055
:103B0000EDF8032060742068D0F8300450F0807025
:103B10002168C1F8300401F0ACFE06002068D0F83E
:103B20000C04C00407D401F0A4FE801BB0F57A7F1A
:103B3000F4D9032097E02068D0F83004DFF8681447
:103B400008402168C1F830042068D0F830042968A2
:103B50006A68D20252EA8101AA6851EA0241084326
:103B60002168C1F830042068D0F8300450F001001A
:103B70002168C1F8300401F07CFE06002068D0F80E
:103B80000C04C00507D401F074FE801BB0F57A7FE9
:103B9000F4D9032067E02068D0F8A00050F00600B8
:103BA0002168C1F8A0002068D0F894008008800047
:103BB0002168C1F894002068D0F89400616851F041
:103BC000010108432168C1F894002068D0F8A400DE
:103BD000800880002168C1F8A4002068D0F8A40003
:103BE000E16808432168C1F8A40020688068000AE1
:103BF000000221688860A0682168886068680028E1
:103C000002D0D5F8048001E05FF001080120A96826
:103C1000884000FB08F0DFF8F414484329684FF4AB
:103C2000FA525143B0FBF1F007002068D0F81804B5
:103C3000800980012168C1F818042068D0F81804B0
:103C400038432168C1F8180400202168C1F8C40075
:103C500000202168C1F8C8000020A0610020606138
:103C6000012060740020BDE8F08110B50400002C34
:103C700001D1012031E0032060742068D0F80404F1
:103C800030F008002168C1F804042068406840084A
:103C90004000216848602068D0F8A00030F006009D
:103CA0002168C1F8A0002068D0F830044008400026
:103CB0002168C1F830042068D0F8300430F08070FA
:103CC0002168C1F83004200000F009F8002060618C
:103CD0000020607400202074002010BD70477047E1
:103CE00010B40200107C012801D1022059E101200A
:103CF0001074486803281068406B4008400013683F
:103D000058631068D0F80004400840001368C3F8F6
:103D100000041068806B8008800013689863106846
:103D2000806BCB681843136898631068C06B800B76
:103D300080031368D8631068C06B0B69184313685D
:103D4000D8631068006C400B400313681864106857
:103D5000006C4B691843136818641068406C400B82
:103D60004003136858641068406C8B6918431368EB
:103D700058641068C068800880001368D8601068B4
:103D8000C0680B6818431368D86010684069C008A1
:103D9000C00013685861106840694B6A0C6A23437D
:103DA000CC692343184313685861106800690009FF
:103DB000000113681861106800694B6818431368A4
:103DC00018611068D0F8000430F00E001368C3F8D2
:103DD00000041068D0F800044B6850EA43001368F0
:103DE000C3F80004486803280BD11068006930F458
:103DF000807013681861106800698B681843136835
:103E000018611068806C000B0003136898641068D8
:103E1000806C8B6A1843136898641068C06C000B40
:103E200000031368D8641068C06CCB6A1843136829
:103E3000D8641068006DC00BC00313681865106863
:103E4000006D0B6B1843136818651068406D800A8D
:103E50008002136858651068406D4B6B18431368F7
:103E600058651068806D800A800213689865106834
:103E7000806D8B6B1843136898651068C06D800A5D
:103E800080021368D8651068C06DCB6B1843136847
:103E9000D8651068006E800B800313681866106880
:103EA000006E0B6C1843136818661068806B30F452
:103EB0000040136898631068806B4B6C184313685C
:103EC00098631068806930F47F0013689861106807
:103ED00080698B6C50EA03401368986110688069B0
:103EE000000A00021368986110688069CB6C18435F
:103EF000136898611068806B30F400501368986301
:103F00001068806B0B6D1843136898631068806BA2
:103F100030F48050136898631068806B4B6D1843C1
:103F2000136898631068806B30F4006013689863BE
:103F30001068806B8B6D1843136898631068806BF2
:103F400030F48060136898631068806BCB6D184301
:103F5000136898631068806B30F40070136898637E
:103F60001068806B0B6E1843136898631068806B41
:103F700030F48070136898631068806B4B6E184340
:103F8000136898631068806B30F4804013689863FE
:103F90001068806B8B6E1843136898630020107450
:103FA000002010BC704700000386FCFF0100087C65
:103FB000012801D1022012E001200874086840683D
:103FC00050F001000A6850600868D0F8040450F00E
:103FD00008000A68C2F80404002008740020704732
:103FE0002DE9F84304000D0016001F00DDF82080C5
:103FF0005FF00009207C012801D102201EE0012091
:10400000207401F036FC81462068406FC0070AD456
:1040100001F02FFCB0EB0900B0F57A7FF4D9002055
:10402000207403200AE0CDF800803B003200290014
:104030002068FFF749FD002020740020BDE8F283CE
:104040002DE9F84F04000D0016001F00DDF8288050
:10405000DDF82C905FF0000A5FF0000B207C012857
:1040600001D102204FE00120207401F002FC8346C0
:104070002068406FC0070AD401F0FBFBB0EB0B00D7
:10408000B0F57A7FF4D90020207403203BE0BA45D4
:104090002BD2BAF1000F12D11AF8090058EA002009
:1040A0001AEB0901497850EA01401AEB09018978B5
:1040B00050EA0160216808671AF1030AE7E71AF875
:1040C00009001AEB0901497850EA01201AEB0901AD
:1040D000897850EA01401AEB0901C97850EA016079
:1040E000216808671AF1040AD1E7781C0004000E61
:1040F0000090781CC3B2320029002068FFF7E4FC6E
:10410000002020740020BDE8F28F000000093D006F
:104110002DE9F84304000025002600275FF0000881
:104120005FF000092078000609D5DFF890070068E5
:1041300030F00060616B0843DFF88017086020688A
:10414000C00509D5DFF87407006830F08050A16B16
:104150000843DFF868170860207810F0430F69D033
:104160000020DFF85C17086001F083FB0500DFF832
:104170003C070068000106D501F07BFB401B652869
:10418000F5D30320DDE12078C00710D5DFF8340730
:10419000B0FA80F00E21B1FA81F1626812FA00F0F3
:1041A000A26812FA01F10843DFF80C1708602078C2
:1041B00080071ED5DFF80007006810F0E0400E21F0
:1041C000B1FA81F1C84006006068E168090651EA69
:1041D000801050EA0670DFF8E0160860DFF8DC06B1
:1041E000006840094001216A491E0843DFF8CC16E7
:1041F0000860207840060AD56068E168090651EA3F
:104200008010A16850EA0170DFF8AC160860012048
:10421000DFF8AC16086001F02CFB0500DFF88C0617
:104220000068000106D401F024FB401B6528F5D38B
:10423000032086E1207810F00C0F08D120780006CA
:1042400040F1F980606BB0F1006F40F0F480002025
:10425000DFF87416086001F00CFB0500DFF84C066F
:104260000068800006D501F004FB401B6528F5D3EB
:10427000032066E12078400745D5DFF85006006846
:1042800010F440304FF44041B1FA81F1C840401C75
:1042900040000700DFF83406006810F0E0400E210F
:1042A000B1FA81F1C8408146DFF81806B0FA80F310
:1042B0004FF44040B0FA80F0F021B1FA81F10E22C3
:1042C000B2FA82F2D4F810C01CFA03F35FEA570C7A
:1042D000BCF1010C1CFA00F01843A36913FA01F1B8
:1042E000084319FA02F10843DFF8E0150860DFF827
:1042F000CC05006830F4F850616A491E50EA01208C
:10430000DFF8B81508602078000742D5DFF8BC0553
:10431000006810F440304FF44041B1FA81F1C840D8
:10432000401C40000700DFF8A405006810F0706032
:10433000F021B1FA81F1C8408046DFF88805B0FA73
:1043400080F34FF44040B0FA80F0F021B1FA81F1EF
:104350000E22B2FA82F2D4F810C01CFA03F35FEA1C
:10436000570CBCF1010C1CFA00F0184318FA01F1CB
:104370000843E16991400843DFF850150860DFF811
:104380003C05006830F44030A16A0843DFF82C1582
:104390000860207800063BD5606BB0F1006F37D124
:1043A000DFF82805006810F07060F021B1FA81F1A3
:1043B000C8408046DFF81405006810F0E0400E2188
:1043C000B1FA81F1C8408146DFF8F804B0FA80F311
:1043D0004FF44040B0FA80F0F021B1FA81F10E22A2
:1043E000B2FA82F2D4F810C01CFA03F3D4F814C065
:1043F0005FEA5C0CBCF1010C1CFA00F0184318FADF
:1044000001F1084319FA02F10843DFF8C01408600B
:104410000120DFF8B414086001F02BFA0500DFF882
:104420008C040068800006D401F023FA401B652844
:10443000F5D3032085E02078800679D5DFF8900455
:10444000006850F08050DFF888140860DFF88004BE
:10445000006810F0805000900098DFF87804006841
:1044600050F48070DFF86C14086001F002FA050067
:10447000DFF860040068C00506D401F0FAF9401BBB
:104480006528F5D303205CE0DFF84C04006810F4E5
:104490004070E16A11F44071884249D0DFF8380475
:1044A000006830F4407006000120DFF83014086026
:1044B0000020DFF828140860DFF81C040660B0074D
:1044C00010D501F0D6F90500DFF80C04006880076C
:1044D00008D401F0CEF9401B41F289318842F3D370
:1044E00003202EE0E06A10F44070B0F5407F0DD15B
:1044F000DFF8BC03006830F4F810E16ADFF8E0236D
:1045000011400843DFF8A813086007E0DFF8A003B4
:10451000006830F4F810DFF898130860DFF8B8038B
:104520000068E16A0905090D0843DFF8AC1308606B
:104530002078C00604D594F83000DFF8A81308608E
:104540000020BDE8F283F8B5040000252078C007FC
:104550005AD5DFF85C03006810F00C0004280BD07B
:10456000DFF84C03006810F00C0008280ED1DFF8CB
:1045700044030068400209D5DFF830030068800377
:1045800042D5606800283FD101208EE10020DFF88D
:104590005813087001F06DF90500DFF8100300688A
:1045A000800308D501F065F9401B41F2893188424A
:1045B000F3D3032079E16068DFF82C13087060689A
:1045C000002810D001F055F90500DFF8E00200687E
:1045D000800319D401F04DF9401B41F28931884222
:1045E000F3D3032061E101F044F90500DFF8BC02D8
:1045F0000068800308D501F03CF9401B41F2893185
:104600008842F3D3032050E12078800764D5DFF897
:10461000A002006810F00C0F0BD0DFF894020068C5
:1046200010F00C0008281FD1DFF888020068400253
:104630001AD4DFF878020068800704D5E068012802
:1046400001D0012031E1DFF8640200685FF0F85129
:10465000B1FA81F130F0F800226912FA01F1084351
:10466000DFF84812086037E0E068002822D0012017
:10467000DFF87812086001F0FCF80500DFF82C0282
:104680000068800706D401F0F4F8401B6528F5D3D4
:1046900003200AE1DFF8140200685FF0F851B1FA74
:1046A00081F130F0F800226912FA01F108437F49E4
:1046B000086011E00020DFF83412086001F0D9F83A
:1046C00005007A480068800706D501F0D2F8401B43
:1046D0006528F6D30320E8E02078000724D5606938
:1046E000002810D001208249086001F0C2F80500BE
:1046F00080480068800717D401F0BBF8401B65288C
:10470000F6D30320D1E000207949086001F0B1F828
:10471000050078480068800706D501F0AAF8401B1C
:104720006528F6D30320C0E02078400758D56848B4
:10473000006850F08050664908606548006810F0D5
:104740008050009000986348006850F48070614980
:10475000086001F08EF805005E480068C00506D4C8
:1047600001F087F8401B6528F6D303209DE0002068
:104770005949087001F07DF8050057480068800726
:1047800008D501F076F8401B41F289318842F4D314
:1047900003208AE0A06850490870A06800280FD064
:1047A00001F067F805004C480068800718D401F054
:1047B00060F8401B41F289318842F4D3032074E051
:1047C00001F057F8050044480068800708D501F05B
:1047D00050F8401B41F289318842F4D3032064E051
:1047E000A069002860D03248006810F00C0008284A
:1047F00058D0A069022844D100203F49086001F048
:1048000038F8050029480068800106D501F031F824
:10481000401B6528F6D3032047E02A48B0FA80F30E
:104820004FF44040B0FA80F0F021B1FA81F10E224D
:10483000B2FA82F2E669276A3E43676A17FA03F31F
:104840003343A66A7608761E16FA00F01843E36A28
:1048500013FA01F10843216B9140084315490860A0
:1048600001202549086001F004F805000F480068A0
:10487000800119D400F0FDFF401B6528F6D303200A
:1048800013E000201C49086000F0F3FF0500074812
:104890000068800108D500F0ECFF401B6528F6D3C6
:1048A000032002E0012000E00020F2BD00380240B9
:1048B0000838024004380240843802408C380240F4
:1048C000680047420000FE037000474288380240FB
:1048D000403802400070004070380240400E4742AD
:1048E000FFFCFF0FE0114742023802400000474240
:1048F000800E474274380240600047420200486A16
:10490000002801D1002001E05FF00050D060086A6B
:10491000002801D1002001E05FF080409060C8696C
:10492000002801D1002001E05FF000405060486B9A
:10493000401E9061486B8B6B1818401E1062486BCC
:104940008B6B18180B6C1818401E9062486B8B6BA1
:1049500018180B6C1818CB6B1818401E1063002029
:10496000704700B470B5040000250026002C01D16A
:10497000012093E094F8A100002805D1002084F8DC
:10498000A000200000F08BF8022084F8A10020682D
:104990008069000100092168886120688069616878
:1049A000A2681143E2681143226911430843216858
:1049B000886120688068DFF8B0130840216888604B
:1049C00060690004050020688068A16929430843E4
:1049D000216888602068C068DFF88C13084021686F
:1049E000C860E069000405002068C068216A2943A6
:1049F00008432168C86020680069DFF86C1308402C
:104A000021680861606A0004050020680069A16AE5
:104A1000294308432168086120684069DFF848138A
:104A2000084021684861E06A000405002068406988
:104A3000216B294308432168486194F8350000023E
:104A4000050094F83600000406002068C06A10F0E3
:104A50007F402168C8622068C06A55EA060194F860
:104A60003420114308432168C8622068406B50F02D
:104A70000400216848632068406B50F00200216800
:104A800048632068806950F0010021688861002037
:104A9000C4F8A400012084F8A100002070BD704774
:104AA00070B504000D00160094F8A000012801D193
:104AB00002201CE0012084F8A000022084F8A1005C
:104AC000342000FB0640383029003422FDF7ACFFCB
:104AD00032002900200000F00BF801202168486214
:104AE000012084F8A100002084F8A000002070BDFF
:104AF000F0B50023002400254E680768FF68C7F35F
:104B00000B47BE19360433000668802707FB026690
:104B1000843607685FF0800C0CFB027784377F686F
:104B200017F4704777600668802707FB02668436B3
:104B30000F68D0F800C0DCF80CC0CCF30B4C1CEBB9
:104B400007077F1C1F437760CE680768FF687F05F3
:104B50007F0DBE19360433000668802707FB026606
:104B6000843607685FF0800C0CFB02778437BF68DF
:104B700017F47047B7600668802707FB0266843623
:104B80008F68D0F800C0DCF80CC05FEA4C5C5FEACC
:104B90005C5C1CEB07077F1C1F43B760066880271F
:104BA00007FB0266843607685FF0800C0CFB027717
:104BB00084373F69FF08FF0037610668802707FBDD
:104BC000026684360F69376191F83160360233002E
:104BD00091F83260360434008E6936063500066876
:104BE000802707FB02668436B6690668802707FBC4
:104BF000026684360027B7610668802707FB0266D5
:104C0000843691F830701F4327432F43B7610668FD
:104C1000802707FB0266843607685FF0800C0CFB78
:104C2000027784377F693F0A3F02776106688027F1
:104C300007FB026684364F6977610668802707FBA9
:104C40000266843607685FF0800C0CFB02778437BD
:104C5000FF69DFF818C11CEA0707F76106688027BB
:104C600007FB02668436CF69D1F820C05CEA0707EB
:104C7000F7610668802707FB02668436B66A066815
:104C8000802707FB026684360027B7620668802704
:104C900007FB026684364F6AB7620E69002E02D1A6
:104CA0000426330016E00E69012E02D103263300DC
:104CB00010E00E69042E08D00E69022E05D00E6990
:104CC000032E02D00E69072E02D10226330001E026
:104CD000012633000668802707FB026684360768D2
:104CE0005FF0800C0CFB02778437FF6A17F0E02737
:104CF000F7620668802707FB026684368F6A5F4387
:104D0000D1F804C0D1F800E0BCEB0E0C03FB0CFCA6
:104D10001CF1030C5CEA0747F7620668802707FB73
:104D20000266843607685FF0800C0CFB02778437DC
:104D30003F6BFF0AFF0237630668802707FB0266A6
:104D40008436CF6A37630668802707FB0266D6F889
:104D5000846056F0010607685FF0800C0CFB027758
:104D6000C7F88460F0BD000000F800F0F8F8FFFF1D
:104D700080B5DFF86803DFF8681308600220DFF809
:104D8000641308600720DFF85C1348600420DFF834
:104D9000541388600720DFF84C13C8600220DFF846
:104DA000441308610220DFF83C1348610220DFF859
:104DB000341388610020DFF8281348600020DFF8F2
:104DC000201388600020DFF81813C8602020DFF867
:104DD000101308614020DFF8081348614FF4C070D9
:104DE000DFF8FC1288610020DFF8F412C8614FF48C
:104DF0000060DFF8EC1208624FF48050DFF8E01238
:104E000048620020DFF8D81288620021DFF8D00263
:104E100000F078F8DFF8CC12DFF8C40200F0CEFF23
:104E2000002804D00120DFF8C012087003E0002041
:104E3000DFF8B412087040F2695000F004F8DFF8AF
:104E4000A802007802BD10B582B0040000200090D6
:104E50000120DFF8981208601020DFF890124860F7
:104E60000120DFF8881288600020DFF88012C86017
:104E70004FF6FF72DFF87412DFF8640200F0C1FF32
:104E8000012000F0F9FC0220DFF860120860102019
:104E90009649486001209549886000209349C86080
:104EA0004FF6FF7291498E4800F0ABFF03208F4907
:104EB000086010208D49486008208C4988600020D7
:104EC0008A49C8604FF6FF728849854800F099FF0B
:104ED0004FF40C700090042084490860102083492E
:104EE000486001208149886000988049C8604FF679
:104EF000FF727E497A4800F084FF2100784800F074
:104F00009EFF13BD30B587B004000D00002C00F0EB
:104F1000E2807748006850F00100754908607448E5
:104F2000006810F00100009000987248006850F48A
:104F30008000704908606F48006810F4800000909D
:104F400000986C48006850F004006A49086069489D
:104F5000006810F00400009000986648006850F067
:104F60000800644908606348006810F00800009079
:104F700000986048006850F010005E4908605D4885
:104F8000006810F01000009000985A48006850F037
:104F90002000584908605748006810F02000009031
:104FA00000985448006850F0400052490860514849
:104FB000006810F04000009000984E48006850F0E3
:104FC00080004C4908604B48006810F08000009059
:104FD00000984848006850F4807046490860454889
:104FE000006810F480700090009802200290012068
:104FF0000390022004900C2005900120019001A94B
:105000003D4800F0D1FA4CF20370019001A93B48F1
:1050100000F0CAFA4FF68370019001A9384800F0F9
:10502000C3FA4FF63F00019001A9364800F0BCFAE0
:1050300048F23310019001A9334800F0B5FA4FF659
:105040000C70019001A9314800F0AEFA40F2FF6007
:10505000019001A92E4800F0A7FA00202D494860D0
:1050600080202C4988604FF400702A49C8604FF4B2
:105070008060284908614FF48050264948614FF408
:1050800080402449886100202249C8615FF40030D3
:105090002049086200201F49486203201D49886298
:1050A00000201C49C86200201A4908631A4819499F
:1050B00008601848206317488463164800F017FFFB
:1050C000144800F0D1FE00220521382000F054FCE5
:1050D000382000F064FC07B030BD0000400100A0A3
:1050E00008020010580200101C0000108C02001072
:1050F000383802403038024000080240000C0240BC
:10510000001002400014024000180240001C02403F
:1051100000200240340100101064024038B5040041
:105120000D00DFF854130020FEF74CFBDFF84C13A2
:105130000320FEF747FBDFF848130020FEF742FB91
:10514000DFF840130220FEF73DFBDFF834130020A8
:10515000FEF738FBDFF830130020FEF733FB0A20A0
:1051600000F018FFC9490020FEF72CFBC8490020B9
:10517000FEF728FB0A2000F00DFFC6490020FEF7CD
:1051800021FBC5490020FEF71DFBC4490020FEF7A6
:1051900019FBC3490020FEF715FBC2490020FEF7AA
:1051A00011FBC1490020FEF70DFBB3490020FEF7BB
:1051B00009FBBE490020FEF705FBBD490020FEF7B4
:1051C00001FBBC490020FEF7FDFABB490020FEF7B9
:1051D000F9FABA490020FEF7F5FAB9490020FEF7BE
:1051E000F1FAB8490020FEF7EDFAB7490020FEF7C2
:1051F000E9FAAB490020FEF7E5FA9F490020FEF7E7
:10520000E1FAB2490220FEF7DDFAB1490020FEF7CB
:10521000D9FAB0490020FEF7D5FAAF490020FEF7D1
:10522000D1FAAE490020FEF7CDFAAD490020FEF7D5
:10523000C9FAAC490020FEF7C5FA9D490020FEF7E7
:10524000C1FAA9490020FEF7BDFA9B490020FEF7EC
:10525000B9FAA6490020FEF7B5FAA5490020FEF7E5
:10526000B1FAA4490220FEF7ADFA85490020FEF705
:10527000A9FAA1490620FEF7A5FAA0490020FEF7E9
:10528000A1FA9F490E20FEF79DFA9E490020FEF7E5
:1052900099FA9D490E20FEF795FA9C490020FEF7E9
:1052A00091FA9B490A20FEF78DFA9A490020FEF7F1
:1052B00089FA99490020FEF785FA71490020FEF726
:1052C00081FA96490A20FEF77DFA95490020FEF7FB
:1052D00079FA94490F20FEF775FA88490020FEF705
:1052E00071FA91490F20FEF76DFA86490020FEF70A
:1052F00069FA8E490A20FEF765FA84490020FEF714
:1053000061FA8B490F20FEF75DFA82490020FEF713
:1053100059FA88490F20FEF755FA87490020FEF711
:1053200051FA86490A20FEF74DFA85490020FEF71A
:1053300049FA84490A20FEF745FA51490020FEF750
:1053400041FA81490A20FEF73DFA75490020FEF72F
:1053500039FA7E490F20FEF735FA68490020FEF73A
:1053600031FA7B490F20FEF72DFA66490020FEF73F
:1053700029FA78490A20FEF725FA64490020FEF749
:1053800021FA75490F20FEF71DFA62490020FEF749
:1053900019FA72490F20FEF715FA45490020FEF769
:1053A00011FA6F490020FEF70DFA6E490020FEF752
:1053B00009FA6D490020FEF705FA2F490020FEF793
:1053C00001FA6A490320FEF7FDF92B490020FEF798
:1053D000F9F929490020FEF7F5F965491020FEF793
:1053E000F1F925490020FEF7EDF962491020FEF79A
:1053F000E9F961490020FEF7E5F9782000F0CAFDDF
:105400002000002806D0022809D15C490020FEF7C0
:10541000D9F904E05A490020FEF7D4F9FFE7012D3D
:105420000BD158490020FEF7CDF957490420FEF76B
:10543000C9F956490420FEF7C5F955490020FEF781
:10544000C1F954490020FEF7BDF953490020FEF789
:10545000B9F952490020FEF7B5F951490020FEF78D
:10546000B1F905490020FEF7ADF94E490020FEF7DD
:10547000A9F9002032BD00006E2800086C720008F7
:105480008628000870720008BE280008062A000856
:10549000EE2A0008922C0008EA2E0008C23000080C
:1054A000C630000862490008BA5D0008A25F000823
:1054B000726D000854700008B2700008BE700008D9
:1054C00002710008F0730008F2730008747200089B
:1054D000F4730008F6730008F8730008FA73000804
:1054E000FC730008FE7300080074000802740008D2
:1054F00004740008787200084C72000806740008F2
:105500002C710008087400083C7100080A74000837
:10551000EC7100080C74000828740008F871000889
:105520000E7400084C7100085C71000804720008D9
:105530006C7100087C71000810740008107200087B
:10554000127400081C720008287200088C71000890
:105550009C71000834720008AC710008BC7100082E
:105560002A7400082C7400082E7400087C7200084D
:1055700004710008187100081474000816740008FB
:10558000187400081A740008547200085C7200084D
:105590001C7400081E74000820740008227400089F
:1055A0002474000826740008F8B4002300240025A1
:1055B00000263200102A80F0EF800126964033004A
:1055C0000E681E4034009C4240F0E4804E68022E7B
:1055D00002D04E68122E16D1D60810EB8606366A17
:1055E00035000F2612F00707FFB2BF00BE40B543DB
:1055F0000E6912F00707FFB2BF00BE403543D60860
:1056000010EB860635620668350003261700FFB2E8
:105610007F00BE40B5430E7916F003061700FFB2B7
:105620007F00BE40354305604E68012E08D04E68AD
:10563000022E05D04E68112E02D04E68122E19D1BE
:105640008668350003261700FFB27F00BE40B543D1
:10565000CE681700FFB27F00BE40354385604668C4
:10566000350001269640B5434E68C6F300169640B5
:1056700035434560C668350003261700FFB27F003A
:10568000BE40B5438E681700FFB27F00BE40354371
:10569000C5604E68F6007DD54B4E366856F48046A0
:1056A000494F3E60484E366816F480460096009E8C
:1056B000464E970856F8276035000F2612F003076C
:1056C000FFB2BF00BE40B543414EB04201D10026FB
:1056D0002DE0404EB04201D1012628E03E4EB042BE
:1056E00001D1022623E03D4EB04201D103261EE047
:1056F0003B4EB04201D1042619E03A4EB04201D1EE
:10570000052614E0384EB04201D106260FE0374E90
:10571000B04201D107260AE0354EB04201D1082639
:1057200005E0344EB04201D1092600E00A26F6B267
:1057300012F00307FFB2BF00BE403543234E970867
:1057400046F827502C4E36683500A5434E68F603C0
:1057500000D52543284E3560284E36683500A543D0
:105760004E68B60300D52543244E3560244E366876
:105770003500A5434E68F60200D52543204E35601E
:10578000204E36683500A5434E68B60200D5254345
:105790001C4E3560521C0DE7F1BC704702001369C6
:1057A00089B20B4202D00123180001E00023180047
:1057B000C0B27047D2B2002A02D089B2816102E041
:1057C00089B20B04836170474438024008380140B5
:1057D000000002400004024000080240000C0240A9
:1057E000001002400014024000180240001C024059
:1057F0000020024000240240003C0140043C0140E3
:10580000083C01400C3C014080B52248006850F43F
:105810000070204908601F48006850F480601D49EE
:1058200008601C48006850F480701A490860032022
:1058300000F09CF80F2000F004F800F0B1FB00200D
:1058400002BD10B5040000F041FD4FF47A71B0FBC9
:10585000F1F000F0ABF8002221005FF0FF3000F023
:105860008BF8002010BD0C480068401C0A490860F5
:10587000704709480068704711B581B00024FFF7F0
:10588000F8FF0400FFF7F5FF001B01998842F9D3E8
:1058900013BD0000003C0240A002001010F00702FF
:1058A000454B1B6819004FF6FF031940434B53EA61
:1058B00002231943404B196070473F480068C0F30A
:1058C00002207047012110F01F0291403C4A40B273
:1058D000430942F82310704710B440B2002808D59D
:1058E0000A01384B40B210F00F04E31803F8042CFF
:1058F00003E00A01344B40B2C25410BC704770B48C
:10590000030013F00704D4F10706052E01D3042089
:1059100001E0D4F10700261D072E01D2002500E08A
:10592000E51E012616FA00F0401E0840A84001219D
:10593000A940491E1140084370BC704710B50400CF
:10594000601EB0F1807F01D301200EE0601E1F4970
:1059500008600F215FF0FF30FFF7BEFF00201C49F9
:10596000086007201B490860002010BD10B5040026
:105970002000FFF793FF10BDF8B504000D001600DE
:105980000027FFF79AFF0700320029003800FFF7D1
:10599000B6FF0100200040B2FFF79EFFF1BD10B539
:1059A0000400200040B2FFF78DFF10BD10B50400C9
:1059B0002000FFF7C3FF10BD0CED00E00000FA056A
:1059C00000E100E018ED00E000E400E014E000E099
:1059D00018E000E010E000E038B504000025002CDD
:1059E00001D101202DE094F83900002805D10020D4
:1059F00084F83800200000F025F8022084F83900EF
:105A000020680068050035F440356068054320686B
:105A100005602068406B0500ED08ED00A0680543B7
:105A2000206845632068006C0500AD0BAD03E0689D
:105A30000543206805640020E063012084F83900F4
:105A4000002032BD70472DE9F04182B004000D0006
:105A500016001F00DDF8208094F83800012801D1DD
:105A600002201AE0012084F83800022084F839006E
:105A7000206800684008400021680860CDF8008078
:105A80003B0032002900200000F016F92068006871
:105A900050F00100216808600020BDE8F6812DE982
:105AA000F04104000D005FF0000820680068C007A6
:105AB00039D5FFF7DEFE804620684068800732D483
:105AC0002068406810F0200006002068406810F050
:105AD0000100070057EA060000280DD020202168A9
:105AE0008860012021688860042084F83900002043
:105AF00084F8380001204EE015F1010FDCD0002DB4
:105B000005D0FFF7B6FEB0EB08008542D4D20020E6
:105B100084F83800E06B50F02000E063032084F844
:105B20003900032037E02068C069800626D5FFF7DA
:105B3000A0FE804620684068C0061FD420684068E8
:105B4000000707D5082021688860042084F8390000
:105B5000012020E015F1010FECD0002D05D0FFF75A
:105B600088FEB0EB08008542E4D2E06B50F02000E4
:105B7000E063032084F8390003200CE00220216850
:105B80008860102021688860012084F83900002096
:105B900084F838000020BDE8F08130B4020012EB38
:105BA000011010F11803002492F83800012801D1E7
:105BB00002207DE0012082F83800022082F83900BE
:105BC0005068B0F5403F01D050680028002934D11A
:105BD0001068406A04003748044058680A2802D018
:105BE0005868092809D158689D6850EA0540DD6861
:105BF00015F07F452843044307E058689D6850EA44
:105C00000540DD6850EA056004431068446210688E
:105C100080690400A40BA40318680443106884611D
:105C200058680A2802D0586809283AD1D868000272
:105C3000000A04001068846233E01068C069040040
:105C40001C48044058680A2802D05868092809D11D
:105C500058689D6850EA0540DD6815F07F45284387
:105C6000044307E058689D6850EA0540DD6850EA43
:105C7000056004431068C461106800690400A40B47
:105C8000A403186804431068046158680A2802D005
:105C90005868092805D1D8680002000A0400106875
:105CA0000462012082F83900002082F838000020C8
:105CB00030BC7047F0FFFC002DE9F043079C002545
:105CC000002600275FF0000C5FF0000E5FEA03483B
:105CD000454655EA0408D0F80090C9F84480D0F849
:105CE0000080C8F83C20D0F80480B8F5403F5ED171
:105CF00011F07F48464611F47F08474611F47F486B
:105D0000C4465FFA81F8C646D0F80880B8F1000FA3
:105D100007D157EA0C0856EA08085EEA0808454623
:105D200040E0D0F80880B8F1010F05D157EA0C081F
:105D30005EEA0808454635E0D0F80880B8F1020F61
:105D40000CD1FF0C5FEA9C2C5FEADE0E5FEAC728ED
:105D500058EA4C185EEA0808454623E0D0F8088067
:105D6000B8F1030F0FD1F60FFF0C5FEADC2C5FEAEE
:105D7000DE0E5FEA872858EA4C1858EAC6385EEA11
:105D8000080845460EE0360F3F0D5FEA1C3C5FEA0F
:105D90001E1E5FEA072858EA0C1858EA06385EEA21
:105DA00008084546D0F80080C8F8385003E0D0F81D
:105DB0000080C8F80C10BDE8F083C05038B504006E
:105DC0000D00002C01D1012019E094F82C000028CE
:105DD00005D1002084F82D00200000F011F80220E9
:105DE00084F82C00211D206800F096FA62682900D2
:105DF000206800F0CFFA012084F82C00002032BD8A
:105E0000704770B504000D00160094F82C000228AD
:105E100001D1022012E0022084F82C003200290077
:105E2000206800F006FB2868022803D1052084F8CA
:105E30002C0002E0012084F82C00002070BD38B551
:105E400004000D0094F82C00022801D102200AE081
:105E5000022084F82C002900206800F012FB0120A9
:105E600084F82C00002032BD38B504000025002C39
:105E700001D101203AE0606A0028022084F8350050
:105E8000206800680500DFF8040105406068A1682B
:105E90000843E16808432169084361690843A1692F
:105EA0000843E1690843216A08430543606A0428FE
:105EB00003D1E06A216B0843054320680560206830
:105EC00040690500ED08ED00606A0543606A04283A
:105ED00001D1A06A054320684561200000F03DF82B
:105EE0000020E064012084F83500002032BD38B580
:105EF0000400002C01D101202EE094F83500022886
:105F000001D1012028E02068006840084000216895
:105F10000860002021680860002021684860002097
:105F20002168886000202168C8600020216808611D
:105F3000212021684861200000F00FF805003F2073
:105F4000616D8840A8600020E064002084F835007E
:105F5000002084F83400002032BD0178C9B2103925
:105F60001822B1FBF2F10A4A8A5C4265042905D382
:105F70000268920A9202121D026503E00268920A08
:105F800092020265006D7047000000003F8010F033
:105F90006472000810B504002000FFF76DFC10BD0E
:105FA0007047D94E70B504000D000026DFF8540389
:105FB000006810F00F00A84280F08F80DFF84403E3
:105FC0000570DFF84003006810F00F00A84201D010
:105FD000012028E12078800709D5DFF81803006840
:105FE00030F0F000A1680843DFF80813086020785B
:105FF000C00740F1FD806068012806D1DFF8FC028F
:106000000068800315D401200DE16068022802D0E9
:106010006068032806D1DFF8E4020068800108D434
:10602000012000E1DFF8D4020068800701D40120DC
:10603000F9E0DFF8C002006880088000616808436A
:10604000DFF8B0120860FFF714FC06006068012852
:1060500010D1DFF8A002006810F00C00042800F056
:10606000C780FFF706FC801B41F289318842F0D3DC
:106070000320D8E06068022810D1DFF878020068B9
:1060800010F00C00082800F0B380FFF7F2FB801B33
:1060900041F289318842F0D30320C4E060680328CC
:1060A0000BD1DFF850020068FFF7E3FB801B41F2E1
:1060B00089318842F5D30320B5E0DFF83802006863
:1060C00010F00C0F00F09480FFF7D3FB801B41F21F
:1060D00089318842F1D30320A5E02078800709D5D3
:1060E000DFF81002006830F0F000A1680843DFF824
:1060F000041208602078C0076ED56068012806D1B8
:10610000DFF8F8010068800315D401208BE0606897
:10611000022802D06068032806D1DFF8E001006899
:10612000800108D401207EE0DFF8D00100688007FC
:1061300001D4012077E0DFF8BC010068800880000E
:1061400061680843DFF8AC110860FFF792FB0600B6
:10615000606801280FD1DFF89C01006810F00C0086
:10616000042839D0FFF785FB801B41F28931884232
:10617000F1D3032057E0606802280FD1DFF87401E3
:10618000006810F00C00082826D0FFF772FB801B77
:1061900041F289318842F1D3032044E0606803284A
:1061A0000BD1DFF850010068FFF763FB801B41F261
:1061B00089318842F5D3032035E0DFF838010068E3
:1061C00010F00C0F08D0FFF754FB801B41F289310F
:1061D0008842F2D3032026E0DFF828010570DFF8BB
:1061E0002401006810F00F00A84201D001201AE03D
:1061F0002078400707D53F48006830F4E050E16858
:1062000008433C4908602078000708D539480068F1
:1062100030F46040216950EAC100364908600F201F
:10622000FFF70FFB002070BD70B400210022002397
:106230000020304C246814F00C04002C04D0042CF2
:1062400005D0082C06D03DE02F4C20003CE02F4C20
:10625000200039E0284C246814F03F042100264C2B
:10626000246864020FD5244C2468284DB5FBF1F551
:1062700047F6C0763440224EB6FA86F6F44004FB68
:1062800005F422000EE01C4C24681F4DB5FBF1F50F
:1062900047F6C07634401A4EB6FA86F6F44004FB50
:1062A00005F42200144C246814F440344FF44045A3
:1062B000B5FA85F5EC40641C64002300B2FBF3F4EE
:1062C000200001E0104C200070BC704780B5FFF743
:1062D000ABFF084909685FF07062B2FA82F20C4BBA
:1062E00011F0F001D140C95CC8400A490860094872
:1062F000006802BD083802400438024000380240FD
:106300000000FE03003C02400024F40000127A006A
:10631000CC7100081800001030B4020000240023E3
:106320000868012817D010680400E40BE4034868EB
:106330008D682843CD6828430D6928434D6928435B
:106340008D692843CD6928430D6A28434D6A284347
:10635000044314601BE010680400E40BE403C86904
:106360000D6A28434D6A2843044350680300DB0B41
:10637000DB0348688D682843CD6828430D692843AE
:106380004D6928438D6928430343146053600020FE
:1063900030BC704770B4030000250024012A20D0CF
:1063A0009868050015F070450868401E4E68761E16
:1063B00050EA06108E68761E50EA0620CE68761ED9
:1063C00050EA06300E69761E50EA06404E69761E87
:1063D00050EA06508E69761E50EA066005439D60BD
:1063E00024E0D868050015F070450868401E4E6826
:1063F000761E50EA06108E68761E50EA06200E6958
:10640000761E50EA06408E69761E50EA0660054305
:106410009868040014F07044C868401E4E69761EE7
:10642000360556EA00300443DD609C60002070BCF5
:106430007047F8B504000D001600002000900027FA
:10644000286869680843A968491E50EA4110E9684C
:1064500050EA4120009000982061FFF70AFA0700F7
:10646000A06980060BD516F1010FF9D0002E04D0DB
:10647000FFF7FFF9C01B8642F2D2032000E00020A4
:10648000F2BD0200506950EA41005061002070479F
:10649000F8B50400002500224021DFF88805FFF749
:1064A00089F900220821DFF88005FFF783F96000F1
:1064B00050F08000060008200700FFB2002F20D017
:1064C000F6B2300607D501224FF40041DFF85C0533
:1064D000FFF770F906E000224FF40041DFF84C05A9
:1064E000FFF768F901220821DFF83C05FFF762F9A0
:1064F000760000220821DFF83005FFF75BF97F1EE8
:10650000DBE708200700FFB2002F16D00122082188
:10651000DFF81405FFF74EF96D004FF48041DFF806
:106520000C05FFF73BF92843050000220821DFF89E
:10653000F804FFF73FF97F1EE5E700220821DFF8A6
:10654000E804FFF737F901224021DFF8D804FFF70C
:1065500031F92800C0B2F2BD70B504000D00002270
:106560004021DFF8C004FFF725F900220821DFF8F9
:10657000B804FFF71FF9600010F07E000600300637
:1065800007D501224FF40041DFF8A004FFF712F90C
:1065900006E000224FF40041DFF89004FFF70AF90B
:1065A00001220821DFF88004FFF704F976000022B9
:1065B0000821DFF87404FFF7FDF8300607D5012243
:1065C0004FF40041DFF86404FFF7F4F806E000221E
:1065D0004FF40041DFF85404FFF7ECF801220821E2
:1065E000DFF84404FFF7E6F8760000220821DFF820
:1065F0003804FFF7DFF8300607D501224FF40041D9
:10660000DFF82804FFF7D6F806E000224FF4004137
:10661000DFF81804FFF7CEF801220821DFF808049C
:10662000FFF7C8F8760000220821DFF8FC03FFF727
:10663000C1F8300607D501224FF40041DFF8EC0322
:10664000FFF7B8F806E000224FF40041DFF8DC0362
:10665000FFF7B0F801220821DFF8CC03FFF7AAF812
:10666000760000220821DFF8C003FFF7A3F8300608
:1066700007D501224FF40041DFF8B003FFF79AF885
:1066800006E000224FF40041DFF8A003FFF792F884
:1066900001220821DFF89003FFF78CF87600002232
:1066A0000821DFF88403FFF785F8300607D50122BB
:1066B0004FF40041DFF87403FFF77CF806E0002296
:1066C0004FF40041DFF86403FFF774F8012208215A
:1066D000DFF85403FFF76EF8760000220821DFF898
:1066E0004803FFF767F8300607D501224FF4004151
:1066F000DFF83803FFF75EF806E000224FF40041B0
:10670000DFF82803FFF756F801220821DFF8180305
:10671000FFF750F8760000220821DFF80C03FFF79E
:1067200049F8300607D501224FF40041DFF8FC029A
:10673000FFF740F806E000224FF40041DFF8EC02DA
:10674000FFF738F801220821DFF8DC02FFF732F802
:10675000760000220821DFF8D002FFF72BF8280688
:1067600007D501224FF40041DFF8C002FFF722F8FD
:1067700006E000224FF40041DFF8B002FFF71AF8FC
:1067800001220821DFF8A002FFF714F86D000022B3
:106790000821DFF89402FFF70DF8280607D501223B
:1067A0004FF40041DFF88402FFF704F806E000220E
:1067B0004FF40041DFF87402FEF7FCFF01220821CC
:1067C000DFF86402FEF7F6FF6D0000220821DFF813
:1067D0005802FEF7EFFF280607D501224FF40041CB
:1067E000DFF84802FEF7E6FF06E000224FF4004122
:1067F000DFF83802FEF7DEFF01220821DFF8280269
:10680000FEF7D8FF6D0000220821DFF81C02FEF71A
:10681000D1FF280607D501224FF40041DFF80C0212
:10682000FEF7C8FF06E000224FF40041DFF8FC014C
:10683000FEF7C0FF01220821DFF8EC01FEF7BAFFE6
:106840006D0000220821DFF8E001FEF7B3FF280603
:1068500007D501224FF40041DFF8D001FEF7AAFF6F
:1068600006E000224FF40041DFF8C001FEF7A2FF6E
:1068700001220821DFF8B001FEF79CFF6D00002225
:106880000821DFF8A401FEF795FF280607D50122AD
:106890004FF40041DFF89401FEF78CFF06E0002280
:1068A0004FF40041DFF88401FEF784FF0122082144
:1068B000DFF87401FEF77EFF6D0000220821DFF88B
:1068C0006801FEF777FF280607D501224FF4004143
:1068D000DFF85801FEF76EFF06E000224FF400419A
:1068E000DFF84801FEF766FF01220821DFF83801D2
:1068F000FEF760FF6D0000220821DFF82C01FEF793
:1069000059FF280607D501224FF40041DFF81C018A
:10691000FEF750FF06E000224FF40041DFF80C01C3
:10692000FEF748FF01220821DFF8FC00FEF742FFD6
:106930006D0000220821DFF8F000FEF73BFF002287
:106940000821DFF8E400FEF735FF01224021DFF8DF
:10695000D400FEF72FFF70BD70B504000D000026B7
:106960002000C0B2FFF794FD2843060055EA060157
:10697000C9B22000C0B2FFF7EFFD70BD80B50120A5
:10698000FEF77AFF01228021DFF8A400FEF712FF54
:106990000120FEF771FF00228021DFF89400FEF74E
:1069A00009FF0120FEF768FF01228021DFF8800047
:1069B000FEF700FF0120FEF75FFF0F210120FFF728
:1069C000CBFD0120FEF758FF3D211120FFF7C4FD4C
:1069D0001E212D20FFF7C0FD00212C20FFF7BCFD5C
:1069E0008D212A20FFF7B8FD3E212B20FFF7B4FDB3
:1069F000002002BD10B540211520FFF7ADFD0A2093
:106A0000FEF73AFF1420FFF743FD04000320044281
:106A100003D103211420FFF79FFF1520FFF738FD56
:106A2000040010BD001C0240000C024000040240A3
:106A3000000002400100B5EE400AF1EE10FA05DB5D
:106A4000F1EEC00AC1ED000A002003E0002008605A
:106A50005FF0FF307047000000B583B0FEF7D4FE52
:106A600000F06EF800F0D6F800F03CF84FF47A70C1
:106A7000FEF702FFFFF782FFFFF7BCFF5FF07F40EA
:106A8000FCF797FDDFF84C02FCF789FD5FF07F40D3
:106A9000FCF77BFD5FF07F40FCF78BFD5FF0FF3084
:106AA000FCF769FDDFF830020090DFF8300200F0FB
:106AB00027F99DED000ADFED550A20EE200A8DED45
:106AC000000A01A89DED000AFFF7B4FF019800F04D
:106AD00029F902000B004EA000F012F90120FEF788
:106AE000CBFEE6E710B50024FCF758FB0400E4B247
:106AF000002C01D000F089F85FF040410020FCF745
:106B0000E9FC0020FCF733FD5FF07F40FCF751FD0E
:106B1000DFF8C001FCF743FD5FF07F40FCF735FD77
:106B20005FF07F40FCF745FD5FF0FF30FCF723FD91
:106B30000323DFF8AC2100210020FCF789FD10BD04
:106B400000B593B0DFF89C01006850F08050DFF88A
:106B500094110860DFF88C01006810F080500090FC
:106B60000098DFF88001006850F08050DFF8741161
:106B70000860DFF87001006810F080500090009805
:106B8000DFF86401006850F44040DFF85C110860F1
:106B9000DFF85401006810F4404000900098012094
:106BA00006900120079002200C905FF480000D9069
:106BB00004200E90B4200F90022010900420119019
:106BC0000220129006A8FDF7BEFC002801D000F0BC
:106BD0001CF800F0CFF8002801D000F016F80F20C4
:106BE000019002200290002003904FF4E0500490A6
:106BF0004FF4E0500590052101A8FFF7D3F90028D4
:106C000001D000F002F813B000BDFEE76666064052
:106C100025660A0000B587B03448006850F00100CE
:106C2000324908603148006810F001000090009877
:106C30002E48006850F002002C4908602B4800687C
:106C400010F00200009000982848006850F00800FA
:106C5000264908602548006810F008000090009858
:106C60002248006850F08000204908601F480068F2
:106C700010F0800000900098802001900120029088
:106C8000002003900220049001A91948FEF78CFC13
:106C90004020019001A91748FEF786FC08200190CA
:106CA00001A91548FEF780FC4FF40040019001A9AE
:106CB0001248FEF779FC4FF48040019000200290CA
:106CC000002003900220049001A90C48FEF76CFC00
:106CD00007B000BD00000010B038943F58700008A5
:106CE00074700008403802400070004030380240A4
:106CF00000000240001C0240000C02400004024060
:106D00000EB400B582B003A9009102466B46012182
:106D1000034878440A30FAF7A9FF06BC5DF810FB77
:106D2000CD0300005FF0FF0C1CEAD05114BF614599
:106D300006E0C110400721F0E04101F160517047C9
:106D400079B900F0004100020AD0B0FA80FC00FAE4
:106D50000CF001F16051A1EB0C5101EBD021400589
:106D6000704741020CBF40F4E0016FF000010020C9
:106D70007047008110B582B000242048006850F0B0
:106D800080501E4908601D48006810F08050009037
:106D9000009801204FF40041B1FA81F1164A42F8FF
:106DA0002100FEF766FD040012480068C00307D406
:106DB000FEF75FFD001BB0F57A7FF5D9032017E0E1
:106DC00001204FF48041B1FA81F10B4A42F82100D1
:106DD000FEF74FFD040007480068800307D4FEF764
:106DE00048FD001BB0F57A7FF5D9032000E00020B4
:106DF00016BD00000470004000000E424038024002
:106E00001248006850F4700010490860104800688B
:106E100050F001000E49086000200E4908600C483F
:106E200000680D4908400A4908600C480C49086090
:106E30000748006830F480200549086000200949AF
:106E400008605FF0006008490860704788ED00E066
:106E50000038024008380240FFFFF6FE10300024E0
:106E6000043802400C38024008ED00E080B500F024
:106E700033F802000023DB431068984204D011006D
:106E80000220ABBE002010605068984204D0111D53
:106E90000220ABBE0020506001BD000010B584B0E0
:106EA000040000F019F8A100421810680021C9433D
:106EB00088420DD107A00090002C01D1002000E0F5
:106EC000042001900320029069460120ABBE1060AF
:106ED00004B010BD3A7474000048704708000010F8
:106EE00019E050F8041BCB0744BFA9F1010359185E
:106EF000121F0023042A41F8043BF9D25FEA827C86
:106F00000B4604D54FF0000CA1F800C09B1CD10724
:106F100044BF0021197050F8042B002AE1D17047BA
:106F200010B450F8041B79B1026843681218083095
:106F3000DC0744BFA9F10104E31852F8044B43F8FD
:106F4000044B091FF9D1ECE710BC704710B504469B
:106F500014F1010F82B00AD08DF8000001226946B9
:106F6000012000F007F8012801D1204616BD4FF09E
:106F7000FF3016BD80B5002802D400F003F802BD32
:106F8000002002BD80B5002901D1002002BD0128EA
:106F900001D0022802D100F004F802BD00F011F87F
:106FA00002BD30B583B00C0015000120FFF776FF5D
:106FB00000900194029569460520ABBE281A03B0E3
:106FC00030BD10B584B00300140000930191029409
:106FD00069460520ABBE01221900201AC046C046F2
:106FE00004B010BD10B5074979441831064C7C44F3
:106FF000163404E00A68081D511888470146A1426A
:10700000F8D110BD2C0000004C0000004EF6885155
:10701000CEF20001086840F470000860BFF34F8FA3
:10702000BFF36F8F4FF00070E1EE100A7047000061
:10703000B1FEFFFF840200002000001000000000ED
:10704000E1FEFFFF20000000E80300000000001048
:1070500000000000C1660000546869732069732055
:1070600053544D333246342D465055205465737475
:107070000A00000053797374656D20697320696E8E
:10708000697469616C6C696E672E2E2E00000000B9
:1070900000F00BF8002801D0FFF7A4FF0020C04645
:1070A000C046FFF7D9FC00F002F80120704700F05D
:1070B00001B800A10746384600F002F8FBE7C10816
:1070C00080B5FFF7D3FE024A11001820ABBEFBE7E4
:1070D000260002007047FEE7FEE7FEE7FEE7704786
:1070E0007047704780B5FEF7BEFB01BD38B504465A
:1070F0000D462846FFF72AFFA84218BF0024204665
:1071000032BD009200090F0E07100B0A04070B088E
:107110000F100A01E100000000090F0E07100B0A12
:1071200004070B080F100A01E200000018040339DD
:107130000000001803033A000000CE001802033BD1
:107140000000001801033C000000CE000000000019
:107150000000000000000000000000CB0000000064
:107160000000000000000000000000CB0004040448
:107170000404000000000000000000CB000000003C
:107180000000040404040400000000CB0000000020
:1071900000000000000000260A0C02CC25000000C0
:1071A0000000000000000000000000CC0000000013
:1071B00000000000000000250B0901CC26000000A3
:1071C0000000000000000000000000CC00000000F3
:1071D000010203040102030406070809014880476D
:1071E00001480047016E000841720008010120209B
:1071F000000001020000CF000000000000000000BD
:107200000000CB0000000000000000000000CB00E8
:1072100000000000000000000000CB00FFFFFFFFA7
:10722000FFFFFFFFFFFFCB000026090B0125000039
:107230000000CC0000250C0A022600000000CC0053
:10724000C046C046FFF7E2FEFFF722FF850100843B
:107250000100CE000000031F2A000000000001DF33
:107260002B0000000006101600061016800901FF12
:107270008009FF007979D8000001B300FFFFFFFF0C
:10728000FFF7FEBFFFF7FEBFFFF7FEBFFFF7FEBF32
:10729000FFF7FEBFFFF7FEBFFFF7FEBFFFF7FEBF22
:1072A000FFF7FEBFFFF7FEBFFFF7FEBFFFF7FEBF12
:1072B000FFF7FEBFFFF7FEBFFFF7FEBFFFF7FEBF02
:1072C000FFF7FEBFFFF7FEBFFFF7FEBFFFF7FEBFF2
:1072D000FFF7FEBFFFF7FEBFFFF7FEBFFFF7FEBFE2
:1072E000FFF7FEBFFFF7FEBFFFF7FEBFFFF7FEBFD2
:1072F000FFF7FEBFFFF7FEBFFFF7FEBFFFF7FEBFC2
:10730000FFF7FEBFFFF7FEBFFFF7FEBFFFF7FEBFB1
:10731000FFF7FEBFFFF7FEBFFFF7FEBFFFF7FEBFA1
:10732000FFF7FEBFFFF7FEBFFFF7FEBFFFF7FEBF91
:10733000FFF7FEBFFFF7FEBFFFF7FEBFFFF7FEBF81
:10734000FFF7FEBFFFF7FEBFFFF7FEBFFFF7FEBF71
:10735000FFF7FEBFFFF7FEBFFFF7FEBFFFF7FEBF61
:10736000FFF7FEBFFFF7FEBFFFF7FEBFFFF7FEBF51
:10737000FFF7FEBFFFF7FEBFFFF7FEBFFFF7FEBF41
:10738000FFF7FEBFFFF7FEBFFFF7FEBFFFF7FEBF31
:10739000FFF7FEBFFFF7FEBFFFF7FEBFFFF7FEBF21
:1073A000FFF7FEBFFFF7FEBFFFF7FEBFFFF7FEBF11
:1073B000FFF7FEBFFFF7FEBFFFF7FEBFFFF7FEBF01
:1073C000FFF7FEBFFFF7FEBFFFF7FEBFFFF7FEBFF1
:1073D000FFF7FEBFFFF7FEBFFFF7FEBFFFF7FEBFE1
:1073E000FFF7FEBFFFF7FEBFFFF7FEBFFFF7FEBFD1
:1073F000C50100950094C53300A3C01B0082C5835E
:10740000C483C10E00A600A000B000C000D0009050
:1074100000E000F011003A553A773660517F532C66
:1074200055025EFF29002C00CF00C56600B6F506A8
:10743000B401000811001800FFFFFFFFFFFFFFFF6E
:1074400020030000E00100000024F400010000001F
:04000005080072413C
:00000001FF
